:020000040800F2
:1000000068040020450100084D0100084F01000868
:1000100051010008530100085501000800000000CC
:100020000000000000000000000000005701000870
:1000300059010008000000005B0100081D1A0008BB
:100040005F0100085F0100085F0100085F01000810
:100050005F0100085F0100085F0100085F01000800
:100060005F0100085F0100085F0100085F010008F0
:100070005F0100085F0100085F0100085F010008E0
:100080005F0100085F0100085F0100085F010008D0
:100090005F0100085F0100085F0100080D03000810
:1000A0005F0100085F0100085F0100085F010008B0
:1000B0005F0100085F0100085F0100085F010008A0
:1000C0005F0100085F0100085F0100085F01000890
:1000D0005F0100085F0100085F0100085F01000880
:1000E000F90200085F0100085F0100085F010008D5
:1000F0005F0100085F0100085F0100085F01000860
:100100005F0100085F0100085F0100085F0100084F
:100110005F0100085F0100085F0100085F0100083F
:100120005F0100085F0100085F0100085F0100082F
:10013000DFF80CD000F0CEF800480047D5210008C9
:10014000680400200648804706480047FEE7FEE7AF
:10015000FEE7FEE7FEE7FEE7FEE7FEE7FEE7FEE777
:10016000911A000831010008F0B480EA0102D40FAE
:100170004200B2EB410F02D20246084611464A0045
:1001800042D0C30DDDB2C1F3C752AD1A202D35DA0E
:10019000C1F3160141F4000204B15242C5F1200638
:1001A00002FA06F12A411044B3EBD05F23D0C4B168
:1001B000012DA0EBC35009DCF0BC4FF0004202EA75
:1001C000C35200F50000DBB200F057B8400000F168
:1001D000807000EBC350A0F1807040EAD1704900FC
:1001E00009E0490841EAC071A0EBC35000F50000E6
:1001F000400800EBC350F0BC00F036B86142012269
:1002000002EB4101001BF6E7F0BC704781F00041B2
:10021000AAE780F00040A7E720F00040C10DC0F33E
:10022000160040F400007F2901DA0020704796296B
:1002300003DCC1F19601C840704796398840704789
:10024000002801DBC0F10040002901DBC1F10041C1
:1002500081427047002801DBC0F10040002901DB2A
:10026000C1F10041884270470029A8BF7047401C77
:10027000490008BF20F00100704710B4B0FA80FCBC
:1002800000FA0CF050EA010404BF10BC704749B1F9
:10029000CCF1200421FA04F411FA0CF118BF012169
:1002A00021430843A3EB0C01CB1D0106000A002BE0
:1002B000BEBF002010BC704700EBC35010440029A3
:1002C000A4BF10BC7047401C490008BF20F00100CB
:1002D00010BC7047064C074D06E0E06840F0010393
:1002E00094E8070098471034AC42F6D3FFF724FF98
:1002F000FC2700081C28000810B54FF4006000F02F
:100300004DF84FF4805000F049F810BD10B5202092
:1003100000F044F8402000F041F8802000F03EF862
:1003200010BD31B5002400F0EBF9044600BF00F029
:10033000E7F9001B00998842F9D338BD10B504468F
:10034000202C05D101F09CFF3220FFF7EAFF20E0CE
:10035000402C05D101F0AEFF3220FFF7E2FF18E09C
:10036000802C05D101F048FF3220FFF7DAFF10E0C2
:10037000B4F5006F05D101F09DFF3220FFF7D1FFEA
:1003800007E0B4F5805F04D101F0BEFF3220FFF733
:10039000C8FF0148046010BD1404014010B50446B4
:1003A00003480068204202D02046FFF7C7FF10BD77
:1003B000140401402DE9F8470246002400200025DE
:1003C0008446002700237BE14FF0010808FA03F47C
:1003D000D1F8008008EA0400A0427DD1DFF8ECA249
:1003E000D1F80480A8EB0A09D0453AD014DCB8F162
:1003F000030F50D009DCB8F1000F31D0B8F1010F74
:100400001CD0B8F1020F49D120E0B8F1110F18D07B
:10041000B8F1120F42D11EE0B9F5881F25D006DCD5
:10042000B9F5803F20D0B9F5801F37D11AE0B9F572
:10043000001F18D0B9F5041F30D117E0D1F80CC057
:100440002DE0D1F80C8008F1040C28E0D1F80C80E4
:1004500008F1080C23E0D1F80C8008F10C0C1EE028
:1004600000BF00BF00BF00BF00BF00BFD1F80880C1
:10047000B8F1000F02D14FF0040C0BE0D1F8088066
:10048000B8F1010F03D14FF0080C146102E04FF0F6
:10049000080C546103E04FF0000C00E000BF00BF07
:1004A000FF2801D8904601E002F104084646FF28E3
:1004B00002D84FEA830803E0A3F108084FEA88084E
:1004C0004746D6F800804FF00F0909FA07F928EAE5
:1004D00009080CFA07F900E07AE048EA0908C6F8CA
:1004E0000080D1F8048008F08058B8F1805F6FD1A7
:1004F00000BFDFF8DC81D8F8188048F00108DFF889
:10050000D091C9F81880C846D8F8188008F00108BA
:10051000CDF8008000BF00BF4FEAB9384FEA930919
:1005200058F829504FEA83784FEA18794FF00F08AE
:1005300008FA09F825EA0805DFF89881424502D152
:100540004FF0000824E0DFF89081424502D14FF0DF
:1005500001081DE0DFF88481424502D14FF0020816
:1005600016E0DFF87C81424502D14FF003080FE02E
:10057000DFF87081424502D14FF0040808E0DFF84F
:100580006881424502D14FF0050801E04FF00608AE
:100590004FEA83794FEA197908FA09F848EA05051C
:1005A000DFF848814FEA930948F82950D1F80480D0
:1005B00008F48038B8F5803F0BD1DFF83481D8F8E3
:1005C000008048EA0008DFF82891C9F800800AE0B6
:1005D00075E0DFF81C81D8F8008028EA0008DFF811
:1005E0001091C9F80080D1F8048008F40038B8F5FB
:1005F000003F0ED1DFF8F88008F10408D8F8008039
:1006000048EA0008DFF8E89009F10409C9F8008019
:100610000DE0DFF8DC8008F10408D8F8008028EA53
:100620000008DFF8CC9009F10409C9F80080D1F87E
:10063000048008F48018B8F5801F0ED1DFF8B08070
:1006400008F10808D8F8008048EA0008DFF8A09010
:1006500009F10809C9F800800DE0DFF8948008F17D
:100660000808D8F8008028EA0008DFF8849009F12B
:100670000809C9F80080D1F8048008F40018B8F51A
:10068000001F0ED1DFF8688008F10C08D8F8008050
:1006900048EA0008DFF8589009F10C09C9F8008011
:1006A0000DE0DFF84C8008F10C08D8F8008028EA4B
:1006B0000008DFF83C9009F10C09C9F800805B1CC8
:1006C000102BFFF481AEBDE8F88700000000111088
:1006D0000010024000080140000C014000100140E1
:1006E0000014014000180140001C014008000140B6
:1006F000000401400AB1016101E00B04036170478D
:1007000001480068704700000400002002480068AB
:10071000401C0149086070470400002010B50848DB
:10072000006840F0100006490860032000F07CF8E3
:10073000002000F007F800F017F8002010BD0000BE
:100740000020024070B5044600F096FA4FF47A712A
:10075000B0FBF1F5284600F0BEFF00222146501EF6
:1007600000F024F8002070BD10B5032000F05CF804
:1007700000221146501E00F019F80448406820F08D
:10078000E06040F080600149486010BD0000014019
:1007900000BF00F01F020121914042094FF0E02309
:1007A00003EB8202C2F8001100BF70472DE9F05F31
:1007B00080460D461646002701F014F907463946D3
:1007C0002A46334601F00700C0F1070ABAF1040FC8
:1007D00002D94FF0040A01E0C0F1070AD14600F146
:1007E000040ABAF1070F02D24FF0000A01E0A0F1AB
:1007F000030AD4464FF0010A0AFA09FAAAF1010ADB
:100800000AEA020A0AFA0CFA4FF0010B0BFA0CFB87
:10081000ABF1010B0BEA030B4AEA0B0421464046FD
:1008200001F0E8F8BDE8F09F00BF00F00702064BBA
:1008300019684FF6FF031940044B0B4343EA0221AA
:10084000014B196000BF70470CED00E00000FA0595
:1008500070B504460D460026FE48006800F007000B
:10086000A8426ED2FB48006820F007002843F949EF
:1008700008600846006800F00700A84201D0012087
:1008800070BD207800F00200022807D1F2484068CD
:1008900020F0F000A1680843EF494860207810F08C
:1008A000010F6ED0606801282CD12020010391FA3D
:1008B000A1F1B1FA81F108430121B1EB601F02D12E
:1008C000E54800680FE02020010391FAA1F1B1FA98
:1008D00081F108430221B1EB601F02D1DE48006ABA
:1008E00001E0DD48406A20210A0392FAA2F2B2FA3E
:1008F00082F2114301F01F0201219140084260D1B0
:100900000120BDE7606802282DD12020010591FA61
:10091000A1F1B1FA81F108430121B1EB601F02D1CD
:10092000CD48006810E02020010591FAA1F1B1FA4C
:1009300081F108430221B1EB601F03D1C648006A70
:1009400002E081E0C448406A20210A0592FAA2F23E
:10095000B2FA82F2114301F01F02012191400842D4
:100960002FD101208CE72020022191FAA1F1B1FAC8
:1009700081F108430121B1EB601F03D1B648006843
:1009800010E051E12020022191FAA1F1B1FA81F1A8
:1009900008430221B1EB601F02D1AF48006A01E0B9
:1009A000AD48406A2021022292FAA2F2B2FA82F203
:1009B000114301F01F0201219140084201D10120A1
:1009C0005EE7A548406820F0030061680843A2493B
:1009D0004860FFF795FE06466068012810D108E0E0
:1009E000FFF78EFE801B41F28831884201D9032037
:1009F00046E79948406800F00C000428F0D113E164
:100A00006068022810D108E0FFF77AFE801B41F2EF
:100A10008831884201D9032032E78F48406800F0CE
:100A20000C000828F0D1FFE008E0FFF769FE801B0A
:100A300041F28831884201D9032021E78648406885
:100A400010F00C0FF1D1EFE0207800F00200022846
:100A500007D18148406820F0F000A16808437E4932
:100A60004860207810F0010F7BD0606801282CD1FD
:100A70002020010391FAA1F1B1FA81F1084301218B
:100A8000B1EB601F02D1744800680FE02020010321
:100A900091FAA1F1B1FA81F108430221B1EB601F93
:100AA00002D16D48006A01E06B48406A20210A03C8
:100AB00092FAA2F2B2FA82F2114301F01F0201216E
:100AC000914008425FD10120DAE6606802282CD10B
:100AD0002020010591FAA1F1B1FA81F10843012129
:100AE000B1EB601F02D15C4800680FE020200105D7
:100AF00091FAA1F1B1FA81F108430221B1EB601F33
:100B000002D15548006A01E05348406A20210A0595
:100B100092FAA2F2B2FA82F2114301F01F0201210D
:100B2000914008422FD10120AAE62020022191FA0B
:100B3000A1F1B1FA81F108430121B1EB601F02D1AB
:100B40004548006810E02020022191FAA1F1B1FA95
:100B500081F108430221B1EB601F03D13E48006AD6
:100B600002E052E03C48406A2021022292FAA2F2BE
:100B7000B2FA82F2114301F01F02012191400842B2
:100B800001D101207CE63448406820F00300616810
:100B9000084331494860FFF7B3FD06466068012805
:100BA00010D108E0FFF7ACFD801B41F2883188428C
:100BB00001D9032064E62848406800F00C000428AE
:100BC000F0D122E06068022810D108E0FFF798FD1C
:100BD000801B41F28831884201D9032050E61E482B
:100BE000406800F00C000828F0D10EE008E0FFF7A4
:100BF00087FD801B41F28831884201D903203FE6FE
:100C00001548406810F00C0FF1D11248006820F030
:100C1000070028430F4908600846006800F00700F5
:100C2000A84201D001202BE6207800F0040004281F
:100C300007D10948406820F4E060E16808430649AC
:100C40004860207800F0080008280ED1024840686B
:100C500004E00000002002400010024020F4605038
:100C6000216940EAC100034948600020FFF76AFD9E
:100C7000002005E60010024000B500F019F809490F
:100C8000496801F0F001F02292FAA2F2B2FA82F27F
:100C9000D140054A515CC8400449086008460068D4
:100CA00000BD000000100240842300080000002066
:100CB000F0B585B00FF28C0C9CE8E01001A8A0E81C
:100CC000E01024A52D6800950021002400220023B7
:100CD0000020214D696811F00C052DD0042D02D0A3
:100CE000082D28D101E01D4828E001F470154FF4CB
:100CF000701696FAA6F6B6FA86F6F54001AE735D62
:100D000011F4803F12D0144D6D6805F400354FF496
:100D1000003696FAA6F6B6FA86F6F5401DF80540B6
:100D20000E4DB5FBF4F505FB03F202E00C4D03FBA1
:100D300005F2104602E000BF084800BF00BF05B042
:100D4000F0BD000002030405060708090A0B0C0D9C
:100D50000E0F1010010200000010024000127A0075
:100D600000093D0038B504460025207810F0010F39
:100D700078D0FC48406800F00C0004280CD0F948FA
:100D8000406800F00C00082836D1F648406800F4AE
:100D90008030B0F5803F2FD12020010391FAA1F1DE
:100DA000B1FA81F108430121B1EB601F02D1ED4896
:100DB00000680FE02020010391FAA1F1B1FA81F15E
:100DC00008430221B1EB601F02D1E648006A01E04E
:100DD000E448406A20210A0392FAA2F2B2FA82F2AF
:100DE000114301F01F02012191400842C0D0606808
:100DF000002837D1012038BD00BFDA48006820F450
:100E00008030D84908600846006820F480200860D7
:100E100000BFFFF775FC054608E0FFF771FC401BBB
:100E200041F28831884201D90320E4E72020010300
:100E300091FAA1F1B1FA81F108430121B1EB601FF0
:100E400002D1C848006810E02020010391FAA1F106
:100E5000B1FA81F108430221B1EB601F03D1C1480F
:100E6000006A02E0B8E0BF48406A20210A0392FA13
:100E7000A2F2B2FA82F2114301F01F020121914065
:100E80000842CAD100BF6068B0F5803F06D1B548BE
:100E9000006840F48030B349086028E0606858B9C1
:100EA000B048006820F48030AE4908600846006809
:100EB00020F4802008601AE06068B0F5A02F0BD104
:100EC000A848006840F48020A649086008460068E9
:100ED00040F4803008600AE0A248006820F48030C6
:100EE000A04908600846006820F48020086000BF20
:100EF0006068C0B3FFF704FC054608E0FFF700FC9C
:100F0000401B41F28831884201D9032073E7202039
:100F1000010391FAA1F1B1FA81F108430121B1EB8A
:100F2000601F02D18F4800680FE02020010391FA72
:100F3000A1F1B1FA81F108430221B1EB601F02D1A6
:100F40008848006A01E08748406A20210A0392FA33
:100F5000A2F2B2FA82F2114301F01F020121914084
:100F60000842CBD038E0FFE7FFF7CAFB054608E0B0
:100F7000FFF7C6FB401B41F28831884201D90320AC
:100F800039E72020010391FAA1F1B1FA81F1084378
:100F90000121B1EB601F02D1724800680FE02020F0
:100FA000010391FAA1F1B1FA81F108430221B1EBF9
:100FB000601F02D16B48006A01E06A48406A202144
:100FC0000A0392FAA2F2B2FA82F2114301F01F026E
:100FD000012191400842CBD1207800F00200022884
:100FE0004DD16048406810F00C0F0AD05D48406851
:100FF00000F00C00082843D15A48406810F4803FA4
:101000003ED12020022191FAA1F1B1FA81F10843E9
:101010000121B1EB601F02D1524800680FE020208F
:10102000022191FAA1F1B1FA81F108430221B1EB59
:10103000601F02D14B48006A01E04A48406A202103
:10104000022292FAA2F2B2FA82F2114301F01F02D6
:1010500001219140084204D02069012801D00120DB
:10106000C9E64048006820F0F800F82292FAA2F29F
:10107000B2FA82F26169914008433A49086092E00D
:10108000206970B3012191FAA1F0B0FA80F0364ADC
:1010900042F82010FFF734FB054606E0FFF730FB6F
:1010A000401B642801D90320A5E62020022191FAE3
:1010B000A1F1B1FA81F108430121B1EB601F02D126
:1010C0002848006810E02020022191FAA1F1B1FA2D
:1010D00081F108430221B1EB601F03D12148006A6E
:1010E00002E01DE01F48406A2021022292FAA2F28B
:1010F000B2FA82F2114301F01F020121914008422D
:10110000CCD01848006820F0F800F82292FAA2F239
:10111000B2FA82F26169914008431249086042E0E4
:101120000021012090FAA0F0B0FA80F00E4A42F8B7
:101130002010FFF7E5FA054606E0FFF7E1FA401B4D
:10114000642801D9032056E62020022191FAA1F15A
:10115000B1FA81F108430121B1EB601F06D10148CA
:10116000006813E0001002400000424220200221EB
:1011700091FAA1F1B1FA81F108430221B1EB601FAC
:1011800002D1F748006A01E0F548406A20210222B6
:1011900092FAA2F2B2FA82F2114301F01F02012187
:1011A00091400842C9D1207800F00800082843D1B6
:1011B000A06970B3012191FAA1F0B0FA80F0E94A78
:1011C00042F82010FFF79CFA054606E0FFF798FA70
:1011D000401B642801D903200DE66020022191FA0A
:1011E000A1F1B1FA81F108430121B1EB601F02D1F5
:1011F000DB48006810E06020022191FAA1F1B1FA09
:1012000081F108430221B1EB601F03D1D448006A89
:1012100002E012E0D248406A6021022292FAA2F271
:10122000B2FA82F2114301F01F02012191400842FB
:10123000CCD00120FFF775F83EE00021012090FAA4
:10124000A0F0B0FA80F0C74A42F82010FFF758FA31
:10125000054606E0FFF754FA401B642801D9032035
:10126000C9E56020022191FAA1F1B1FA81F10843A8
:101270000121B1EB601F02D1B94800680FE0602086
:10128000022191FAA1F1B1FA81F108430221B1EBF7
:10129000601F02D1B248006A01E0B148406A602193
:1012A000022292FAA2F2B2FA82F2114301F01F0274
:1012B000012191400842CDD1207800F0040004289B
:1012C00073D100BFA648C06940F08050A449C861EE
:1012D0000846C06900F08050009000BF00BFA248DF
:1012E000006840F48070A0490860FFF709FA0546DD
:1012F00006E0FFF705FA401B642801D903207AE5D0
:101300009948006810F4807FF3D000BF9448006AC9
:1013100020F00100924908620846006A20F00400AB
:10132000086200BFFFF7ECF9054608E0FFF7E8F9AF
:10133000401B41F28831884201D903205BE54020FF
:10134000022191FAA1F1B1FA81F108430121B1EB37
:10135000601F02D1824800680FE04020022191FA0C
:10136000A1F1B1FA81F108430221B1EB601F02D172
:101370007B48006A01E07A48406A4021022292FAE2
:10138000A2F2B2FA82F2114301F01F020121914050
:101390000842CBD100BFE068012807D17048006A3D
:1013A00040F001006E49086228E09CE0E06858B90E
:1013B0006B48006A20F00100694908620846006A2B
:1013C00020F00400086219E0E06805280BD16448A9
:1013D000006A40F00400624908620846006A40F072
:1013E000010008620AE05E48006A20F001005C49E2
:1013F00008620846006A20F00400086200BFE06846
:10140000C0B3FFF77DF9054608E0FFF779F9401B07
:1014100041F28831884201D90320ECE440200221C6
:1014200091FAA1F1B1FA81F108430121B1EB601FFA
:1014300002D14B4800680FE04020022191FAA1F14F
:10144000B1FA81F108430221B1EB601F02D1444897
:10145000006A01E04248406A4021022292FAA2F268
:10146000B2FA82F2114301F01F02012191400842B9
:10147000CBD038E0FFE7FFF743F9054608E0FFF778
:101480003FF9401B41F28831884201D90320B2E480
:101490004020022191FAA1F1B1FA81F10843012122
:1014A000B1EB601F02D12E4800680FE040200221FE
:1014B00091FAA1F1B1FA81F108430221B1EB601F69
:1014C00002D12748006A01E02548406A40210222F3
:1014D00092FAA2F2B2FA82F2114301F01F02012144
:1014E00091400842CBD1E069002873D01C48406885
:1014F00000F00C0008286ED0E06902286CD10021B1
:10150000C00590FAA0F0B0FA80F0184A42F8201016
:10151000FFF7F6F8054606E0FFF7F2F8401B6428EF
:1015200001D9032067E42020010591FAA1F1B1FA65
:1015300081F108430121B1EB601F02D10848006826
:1015400018E02020010591FAA1F1B1FA81F10843D8
:101550000221B1EB601F0BD10148006A0AE00000D4
:1015600000100240800442420070004000004242ED
:101570005648406A20210A0592FAA2F2B2FA82F293
:10158000114301F01F02012191400842C4D1206A99
:10159000B0F5803F07D14D48406820F40030A16885
:1015A00008434A494860D4E9080108434749496863
:1015B00021F474110843454948600121080690FA56
:1015C000A0F0B0FA80F0424A42F82010FFF798F8F5
:1015D000054609E077E074E032E0FFF791F8401B40
:1015E000642801D9032006E42020010591FAA1F125
:1015F000B1FA81F108430121B1EB601F02D13348F8
:1016000000680FE02020010591FAA1F1B1FA81F103
:1016100008430221B1EB601F02D12C48006A01E0AF
:101620002A48406A20210A0592FAA2F2B2FA82F20E
:10163000114301F01F02012191400842CDD042E048
:1016400000214FF0807090FAA0F0B0FA80F0204AAC
:1016500042F82010FFF754F8054606E0FFF750F86F
:10166000401B642801D9032050E42020010591FA91
:10167000A1F1B1FA81F108430121B1EB601F02D160
:10168000124800680FE02020010591FAA1F1B1FA9B
:1016900081F108430221B1EB601F02D10B48006ABF
:1016A00001E00A48406A20210A0592FAA2F2B2FA41
:1016B00082F2114301F01F02012191400842CDD175
:1016C00001E0012022E4002020E40000001002409C
:1016D00000004242704770B504462546681EB0F1CE
:1016E000807F01D301200FE0681E4FF0E0214861A8
:1016F0000F214FF0FF3000F07DF900204FF0E02186
:10170000886107200861002070BD10B5FFF7E2FF77
:1017100010BD10B50121002000F0EEF802210020DC
:1017200000F0EAF810BD70B506460D46012D01D156
:10173000402409E0032D01D1502405E00DB9002417
:1017400002E0022D00D11024701E2044C4B22046B5
:1017500000F020F970BD000070B50446207840F01C
:10176000200061780843A17840EA010600F036F8CD
:10177000002202211848FEF7BDFF00220121164871
:10178000FEF7B8FF0F20FEF7CCFD002507E0032091
:1017900000F0D0F80520FEF7C4FD681CC5B2032D8B
:1017A000F5DB022000F0C6F80520FEF7BAFD314651
:1017B000002000F0A1F80C263146002000F09CF833
:1017C00001263146002000F097F806263146002019
:1017D00000F092F870BD00000010014000B585B027
:1017E00000BF0D48806940F010000B498861084631
:1017F000806900F01000009000BF00BF012002903F
:101800000320049040F26330019001A90348FEF7E1
:10181000D1FD05B000BD00000010024000100140E5
:1018200070B588B00446254600263CB9302000F04B
:1018300025F8302000F022F808B070BD0BE00A2037
:10184000B5FBF0F100FB115030300DF806000A2016
:10185000B5FBF0F5761C002DF1D10A2C02D2302018
:1018600000F00CF803E01DF8060000F007F8300067
:10187000A6F10106F7D100BFDEE7000010B504466F
:10188000072C06D0082C16D00A2C0FD00C2C17D100
:1018900004E001210846FFF746FF1CE0012100207B
:1018A00000F02AF80220FEF73CFD14E0022101209E
:1018B000FFF739FF0FE01021002000F01DF80AE0CB
:1018C0007F2C03DDA4F1C00004490C5C21460120FB
:1018D00000F012F800BF00BF10BD00009423000804
:1018E00070B505462C4603E02078FFF7C7FF641C5F
:1018F00020780028F8D170BD70B504460D462CB98B
:10190000002201210A48FEF7F5FE06E0012C04D171
:10191000012211460648FEF7EDFE0120FEF701FD0B
:10192000281100F007F805F00F0000F003F870BD73
:101930000010014010B5044604F0010220211448B3
:10194000FEF7D8FEC4F3400240211148FEF7D2FE54
:10195000C4F380024FF480710D48FEF7CBFEC4F350
:10196000C0024FF400710A48FEF7C4FE0120FEF7E2
:10197000D8FC012202210648FEF7BCFE0120FEF73A
:10198000D0FC002202210248FEF7B4FE10BD000088
:101990000010014010B5044644F080010020FFF71C
:1019A000ABFF10BD08B500BF0B48806940F02000B8
:1019B000094988610846806900F02000009000BF56
:1019C00000BF01200549486088600320C8600448C2
:1019D000FEF7F0FC08BD000000100240540000209B
:1019E0000014014002480068C0F302207047000064
:1019F0000CED00E010B5002807DA0A07140E054ABE
:101A000000F00F031B1FD45403E00A07130E024A11
:101A1000135410BD18ED00E000E400E010B5FEF72F
:101A200075FEFFF772FE10BD00B591B00120079062
:101A3000000408900020099002200E90C1030F912D
:101A40004FF4E011109107A8FFF78CF905200290E0
:101A500002200390002004904FF480600590002045
:101A60000690022102A8FEF7F3FE00BF0748806936
:101A700040F00100054988610846806900F00100D6
:101A8000019000BF00BF11B000BD00000010024077
:101A90001148006840F001000F490860084640689E
:101AA0000E4908400C494860084600680C49084047
:101AB000094908600846006820F48020086008464C
:101AC000406820F4FE0048604FF41F008860C8039F
:101AD0000449086070470000001002400000FFF851
:101AE000FFFFF6FE08ED00E002E008C8121F08C183
:101AF000002AFAD170477047002001E001C1121F8F
:101B0000002AFBD17047000000B585B000BF164821
:101B1000806940F00400144988610846806900F03B
:101B20000400009000BF00BF104802900220039004
:101B3000032004904FF4C750019001A90C48FEF710
:101B400039FC012205211720FEF730FE0122052174
:101B50002820FEF72BFE1720FEF71AFE2820FEF79E
:101B600017FE05B000BD000000100240000021106B
:101B70000008014010B5FFF7C7FF10BD70B504465F
:101B8000012C7CD1FA480068FA49884213D1FA48FE
:101B90004088401C00B2F8494880B1F904108842DE
:101BA00003DDF5480088F4494880F349498888B244
:101BB00000F06AFA4CE2EE480068F049884213D11E
:101BC000EF484088401C00B2ED494880B1F904104C
:101BD000884203DDEA480088E9494880E8494988A5
:101BE00088B200F051FA33E2E1480068E5498842E2
:101BF00013D1E5484088401C00B2E3494880B1F960
:101C00000410884203DDE0480088DF494880DE494F
:101C1000498888B200F038FA1AE2D5480068DB49F2
:101C2000884213D1DA484088401C00B2D849488025
:101C3000B1F90410884203DDD5480088D4494880B2
:101C4000D349498888B200F01FFA01E2C848006809
:101C5000D049884214D1D0484088401C00B2CE49B7
:101C60004880B1F90410884203DDCB480088CA4996
:101C70004880C949498888B200F006FAE8E16AE07C
:101C8000BB480068C549884213D1C5484088401CFC
:101C900000B2C3494880B1F90410884203DDC0484E
:101CA0000088BF494880BE49498888B200F0ECF9F5
:101CB000CEE1AF480068BB49884213D1BA4840889A
:101CC000401C00B2B8494880B1F90410884203DDD5
:101CD000B5480088B4494880B349498888B200F0C3
:101CE000D3F9B5E1A2480068B04988421AD1B04999
:101CF000B0480068FEF738FAAE490860AE4801689F
:101D0000AC480068FEF7A6FA03D2AC480068A949BF
:101D10000860A8480068FEF77FFA85B2284600F000
:101D2000B3F995E192480068A54988428DD1A5484C
:101D30004088401C00B2A3494880B1F90410884291
:101D400003DDA04800889F4948809E49498888B2A1
:101D500000F09AF97CE1022C7CD185480068854925
:101D6000884213D184484088401E00B2824948808E
:101D7000B1F90010884203DA7F4880887E494880A4
:101D80007D49498888B200F07FF961E178480068B0
:101D90007A49884213D17A484088401E00B2784977
:101DA0004880B1F90010884203DA75488088744988
:101DB00048807349498888B200F066F948E16C4868
:101DC00000687049884213D16F484088401E00B2B5
:101DD0006D494880B1F90010884203DA6A4880886A
:101DE000694948806849498888B200F04DF92FE177
:101DF0005F4800686549884213D165484088401EA5
:101E000000B263494880B1F90410884203DA60489F
:101E100080885F4948805E49498888B200F034F97B
:101E200016E1534800685B49884214D15A484088FB
:101E3000401E00B258494880B1F90010884203DAC8
:101E400055488088544948805349498888B200F0F1
:101E50001BF9FDE06AE0464800685049884213D10A
:101E60004F484088401E00B24D494880B1F90010EB
:101E7000884203DA4A488088494948804849498865
:101E800088B200F001F9E3E039480068454988422A
:101E900013D145484088401E00B243494880B1F9FB
:101EA0000010884203DA404880883F4948803E4914
:101EB000498888B200F0E8F8CAE02D4800683B493C
:101EC00088421AD13A493B480068FEF79FF93949E0
:101ED00008603A48016837480068FEF7B1F903D254
:101EE000354800683349086032480068FEF794F9C5
:101EF00085B2284600F0C8F8AAE01D4800683049BD
:101F0000884212D12F484088401E00B22D49488097
:101F1000B1F90010884203DA2A48808829494880AC
:101F20002849498888B200F0AFF891E0FCB9104820
:101F300000681049884205D10F49498888B200F0ED
:101F4000A3F885E00A4800680C49884205D10C498D
:101F5000498888B200F098F87AE005480068094995
:101F6000884231D10849498888B200F08DF86FE085
:101F70004C000020342400080C00002064240008D9
:101F8000120000209424000818000020C424000837
:101F90001E000020F424000824000020242500084E
:101FA0002A00002054250008300000208425000865
:101FB0000AD7233C3C0000204000002044000020C1
:101FC000B4250008360000202248006822498842D3
:101FD00005D12249498888B200F056F838E01D48FA
:101FE00000681F49884205D11E49498888B200F01F
:101FF0004BF82DE0174800681B49884205D11B4962
:10200000498888B200F040F822E012480068184978
:10201000884205D11749498888B200F035F817E0A1
:102020000C4800681449884208D114480068FEF73B
:10203000F3F885B2284600F027F809E00548006863
:102040000F49884204D10F49498888B200F01CF832
:1020500070BD00004C000020C42400081E000020B9
:10206000F424000824000020242500082A00002071
:102070005425000830000020842500083C00002082
:10208000B42500083600002010B5044600210120C8
:10209000FFF749FB094909684869FFF721FC01215D
:1020A0000320FFF740FB06A0FFF71AFC2020FFF7F4
:1020B000E5FB2046FFF7B4FB10BD00004C000020FC
:1020C000CFE0F0E0ECE5F2F03A0000000820034930
:1020D0004870042088700020087070474800002075
:1020E00070B50546012407E0E1B20120FFF71BFBB4
:1020F0002020FFF7C3FB641C032CF5DD681CC1B274
:102100000120FFF710FB3E20FFF7B8FB70BD000079
:1021100070B5FFF7FEFA23480068806822498842BC
:1021200008D100210120FFF7FEFA20480068FFF7E0
:10213000D7FB0AE01B480068866800210120FFF7F2
:10214000F2FA7069FFF7CCFB00BF1648056800681B
:10215000407C022803DC13480068447C07E01148F7
:102160000068407C032190FBF1F201FB120401E0C6
:102170006D68641E002CFBDC00240FE0601CC1B203
:102180000220FFF7D0FA6869FFF7AAFB0649286822
:10219000884201D02D6800E002E0641C032CEDDBD6
:1021A00000BF70BD4C000020D423000808000020B0
:1021B00010B5FFF78BFF0448FFF7CEFAFFF7A9FA37
:1021C00002480349086010BD48000020EC230008C5
:1021D0004C000020FEF7A2FAFFF726FCFFF7E2FB17
:1021E000FFF7E6FFFFF794FF0020FFF779FFFFF707
:1021F000C1FC00BFFEE7000008B51F480068007C76
:1022000078BB1D480068407C032190FBF1F00090F2
:102210001948006800681949884200D108BD16486D
:10222000006800681449086008460068407C032183
:1022300090FBF1F00099884208D00F480068407C7C
:10224000032190FBF1F00090FFF762FF0A49096853
:10225000497C0323009A03FB1211C8B2FFF740FF29
:1022600007E0FFE704480068007C022801D1FFF77F
:1022700085FC00BFD2E700004C000020D4230008FA
:1022800010B50A48006880680949884200D110BD2D
:1022900006480068806805490860FFF739FF034970
:1022A0000968487CFFF71CFF00BFF0E74C000020E6
:1022B000D423000810B512480068C068114988424C
:1022C00000D110BD0E480068C0680D49086008467E
:1022D0000068007C38B9FFF71BFF09490968487C92
:1022E000FFF7FEFE09E006480068007C022804D1E2
:1022F000FFF70FFA0020FFF741FC00BFE1E7000005
:102300004C000020D423000810B51C480068007C55
:1023100050BB1A480068407C032190FBF1F4174839
:10232000006840681649884200D110BD1348006813
:1023300040681249086008460068407C032190FB11
:10234000F1F0A04206D00D480068407C90FBF1F40B
:10235000FFF7DEFE09490968497C032202FB1411DC
:10236000C8B2FFF7BDFE07E004480068007C022801
:1023700002D10120FFF702FC00BFD6E74C0000208D
:10238000D42300080000000001020304010203043A
:102390000607080941A042A1E045A3A4A5A64BA7B2
:1023A0004D484FA8504354A9AA58E1ABACE2ADAE9A
:1023B000ADAFB0B161B2B3B4E365B6B7B8B9BABB4B
:1023C000BCBD6FBE7063BF79E478E5C0C1E6C2C32F
:1023D000C4C5C6C7000000000000000000000000E7
:1023E0000000000000000000F82700080424000896
:1023F000D4230008D4230008D423000800000000E0
:10240000D8270008D4230008EC230008D4230008B0
:102410001C24000800010000702700084C2400085C
:10242000D42300080424000834240008000000001D
:10243000EB270008D4230008D42300081C2400083C
:10244000D423000802000000EB2700087C240008C9
:102450001C24000804240008642400080001000073
:102460003D270008D4230008D42300084C2400088A
:10247000D4230008020000003D270008AC24000817
:102480004C240008042400089424000800020000E2
:1024900013270008D4230008D42300087C24000854
:1024A000D42300080200000013270008DC240008E1
:1024B0007C24000804240008C42400080003000051
:1024C00056270008D4230008D4230008AC240008B1
:1024D000D423000802000000562700080C2500083D
:1024E000AC24000804240008F424000800040000C0
:1024F00004270008D4230008D4230008DC240008A3
:10250000D4230008020000003D2700083C250008F5
:10251000DC2400080424000824250008000500002D
:102520002D270008D4230008D42300080C25000818
:10253000D4230008020000002D2700086C250008A5
:102540000C2500080424000854250008000600009B
:1025500094270008D4230008D42300083C25000851
:10256000D423000802000000942700089C250008DE
:102570003C2500080424000884250008000700000A
:1025800087270008D4230008D42300086C250008FE
:10259000D423000802000000A2270008CC25000870
:1025A0006C25000804240008B42500080008000079
:1025B000AF270008D4230008D42300089C25000876
:1025C000D423000802000000AF270008D42300082D
:1025D0009C25000804240008E425000800090000E8
:1025E0002127000814260008D4230008CC25000861
:1025F000D423000800000000BF270008D4230008EF
:10260000D4230008E4250008D423000801000000BA
:10261000BF27000844260008E4250008CC25000850
:10262000D4230008000100007A270008D423000802
:10263000D423000814260008D42300080100000059
:102640007A2700087426000814260008CC25000804
:10265000D423000800020000D4270008D423000877
:10266000D423000844260008D423000801000000F9
:10267000D4270008A426000844260008CC2500081A
:10268000D423000800030000CB270008D42300084F
:10269000D423000874260008D42300080100000099
:1026A000CB270008D426000874260008CC25000893
:1026B000D42300080004000062270008D423000887
:1026C000D4230008A4260008D42300080100000039
:1026D00062270008D4230008A4260008CC2500089F
:1026E000D4230008000500004A270008D42300086E
:1026F000D4230008D4260008D423000801000000D9
:102700004A270008D2EEEF2DE2EE20F0EEE7E6E8F1
:10271000E3E000C2F0E5ECFF20F0EEE7E6E8E3E0FE
:1027200000C4E8E0E3EDEEF1F2E8EAE000C7E0EF34
:10273000EEEB2DEDE8E520F8EDFDEAE000D2E5EC6A
:102740002DF0E020EAEEF2EBE000CDE0F1EEF1203A
:10275000EAEEF2EBE000D0E0E1EEF2E020F2FDED97
:10276000E000CDE0F1EEF120E1EEE9EBE5F0E00094
:10277000CDE0F1F2F0EEE9EAE800D8EDE5EA20E399
:10278000EEF0E5EBEAE800C2F0E5ECFF20F7E8F256
:10279000F1EAE800CFE5F0E8EEE420F7E8F1F2EA4C
:1027A000E800C2F0E5ECFF20F7E8F1F2EAE800DF2C
:1027B000F0EAEEF1F2FC20EFEBE0ECE5EDE800D81A
:1027C000EDE5EA20EFEEE4E0F7E800CAEEEBEEF12B
:1027D000EDE8EA00D2FDED00D1F2E0F0F200C3EB4B
:1027E000E0E2EDEEE520ECE5EDFE00D0E5E6E8EC1C
:1027F00020E3EEF0E5EDE8FF000000001C280008F3
:102800000000002054000000E81A000870280008AA
:102810005400002014040000F81A000800A24A0422
:1028200000000000DE27000800000000000000009B
:102830000000000000000000000000000000000098
:102840000000000000000000000000000000000088
:102850000000000000000000000000000000000078
:102860000000000000000000000000000000000068
:0400000508000131BD
:00000001FF
