:020000040800F2
:1000000018050020450100084D0100084F010008B7
:1000100051010008530100085501000800000000CC
:100020000000000000000000000000005701000870
:1000300059010008000000005B0100089925000834
:100040005F0100085F0100085F0100085F01000810
:100050005F0100085F0100085F0100085F01000800
:100060005F0100085F0100085F0100085F010008F0
:100070005F0100085F0100085F0100085F010008E0
:100080005F0100085F0100085F0100085F010008D0
:100090005F0100085F0100085F010008AF0700086A
:1000A0005F0100085F0100085F0100085F010008B0
:1000B0005F010008652600085F0100085F01000875
:1000C0005F0100085F0100085F0100085F01000890
:1000D0005F0100085F0100085F0100085F01000880
:1000E0009B0700085F0100085F0100085F0100082E
:1000F0005F0100085F0100085F0100085F01000860
:100100005F0100085F0100085F0100085F0100084F
:100110005F0100085F0100085F0100085F0100083F
:100120005F0100085F0100085F0100085F0100082F
:10013000DFF80CD000F0FEFA004800474533000815
:10014000180500200648804706480047FEE7FEE7FE
:10015000FEE7FEE7FEE7FEE7FEE7FEE7FEE7FEE777
:100160000D26000831010008202A04DB203A21FA7C
:1001700002F00021704721FA02F3D040C2F12002C0
:100180009140084319467047F0B480EA0102D40F49
:100190004200B2EB410F02D20246084611464A0025
:1001A00042D0C30DDDB2C1F3C752AD1A202D35DAEE
:1001B000C1F3160141F4000204B15242C5F1200618
:1001C00002FA06F12A411044B3EBD05F23D0C4B148
:1001D000012DA0EBC35009DCF0BC4FF0004202EA55
:1001E000C35200F50000DBB200F071B9400000F12D
:1001F000807000EBC350A0F1807040EAD1704900DC
:1002000009E0490841EAC071A0EBC35000F50000C5
:10021000400800EBC350F0BC00F050B9614201222D
:1002200002EB4101001BF6E7F0BC704781F0004192
:10023000AAE780F00040A7E780EA010210B502F0CB
:100240000043400026D04A0023D04FEA106101EB62
:100250001261C0F35600C2F3560240F4000042F4AB
:100260000002A0FB0220A1F17F014FEA004014042C
:1002700001D000F1010050EA124001D44000491EB3
:10028000C2B20C0604EBD010401C4008802A02D0F9
:1002900003E0002010BD20F00100002900DA00205A
:1002A000184310BD30B480EA010202F0004530F07E
:1002B000004221F0004015D0A0B1C0F3C753C2F3F3
:1002C000C754C2F31601C0F31600E41A41F400014A
:1002D00040F400027D34914201D3641C00E04900E7
:1002E000002C02DA30BC002070474FF400000023DD
:1002F000914201D3891A034340084FEA4101F7D1E3
:1003000051B1914202D14FF0004105E002D24FF0CD
:10031000010101E06FF0010103EBC450284430BC3F
:1003200000F0CCB82DE9FE4F81EA030404F000444C
:1003300021F0004100944FF0000B23F0004350EAFD
:10034000010402D052EA030404D10020014603B0A4
:10035000BDE8F08FC3F30A54C1F30A552C44A4F24C
:10036000F3340194A0FB0254C1F3130141F4801152
:10037000C3F3130343F4801301FB024400FB034E59
:10038000840A970A44EA815447EA8357A4FB076822
:1003900002958D0A05FB07854FEA932C04FB0C544C
:1003A0002705029D4FEA065847EA1637B5EB0805C0
:1003B0006EEB070C870E920E47EA811742EA831212
:1003C000A7FB0201B6EB0B0164EB00042B0D43EA23
:1003D0000C335E1844EB1C50DA465146E7FB020131
:1003E000C5F313044FEA0B3343EA14534FEA0432C4
:1003F000019C43EA0603A4F10C040294009CCDE99D
:1004000000B400F09EF8A2E796230022114600F007
:100410005EB820F00040C10DC0F3160040F40000AB
:100420007F2901DA00207047962903DCC1F196018B
:10043000C8407047963988407047C1F30A5210B5DA
:10044000C1F3130140F2FF3341F480119A4201DA03
:10045000002010BD40F233439A42A2F2334203DC43
:100460005242FFF781FE10BD904010BD00F00042E7
:1004700030F000400AD0C10D01F56071C0F31600E4
:1004800042EA0151C208400711437047002001466B
:1004900070470000002801DBC0F10040002901DBAB
:1004A000C1F1004181427047002801DBC0F10040EA
:1004B000002901DBC1F10041884270470029A8BF33
:1004C0007047401C490008BF20F00100704710B47D
:1004D000B0FA80FC00FA0CF050EA010404BF10BC32
:1004E000704749B1CCF1200421FA04F411FA0CF15F
:1004F00018BF012121430843A3EB0C01CB1D0106CA
:10050000000A002BBEBF002010BC704700EBC35098
:1005100010440029A4BF10BC7047401C490008BF0C
:1005200020F0010010BC704710B5002B08DA401C09
:1005300041F1000192185B411A4301D120F0010002
:1005400010BD2DE9F04D92469B4611B1B1FA81F2F2
:1005500002E0B0FA80F22032904600F0FDF8044646
:100560000F4640EA0A0041EA0B0153465A46084347
:1005700003D120463946BDE8F08D114653EA01000B
:1005800015D0C8F140025046FFF7EEFD05460E4675
:1005900050465946424600F0DFF8084301D001209A
:1005A00000E00020054346EAE0762C4337430A98F2
:1005B0004FEA4453A0EB08004FEAD4240A304FF02E
:1005C000000244EA47544FEAD72502D500200146ED
:1005D000D1E7010510196941DDE9084500196941B4
:1005E000BDE8F04DA0E72DE9FE4F804681EA03000B
:1005F000C00F0C46009021F0004123F00045B8EBFD
:100600000200A94105D24046214690461C460B46B1
:10061000024623F00040104304D14046214603B077
:10062000BDE8F08F270DC7F30A00C3F30A5102900B
:10063000401A0190402866DAC3F3130040F4801B8F
:100640000098924620B10023D2EB030A63EB0B0B18
:1006500001985946C0F14002504600F07DF8064628
:100660000D4650465946019A00F085F810EB0800F7
:100670006141002487EA115284EAE7731A433BD0B0
:10068000009A3AB3019A012A4FEA075210DC001B84
:1006900061EB02014FF0004202EA0752CDE900424D
:1006A000001C41F5801132462B46FFF74AFFB6E7A2
:1006B000001B61EB0201001C41F5801300185B4137
:1006C0002018A2F5001747EB030140EAD570B619D0
:1006D0006D4111E06D084FEA360645EAC0754FEAF4
:1006E0000752001B61EB0201001C41F58011490813
:1006F0004FEA30000019514132462B4603B0BDE8A5
:10070000F04FFFF711BF0098012240000023D0EB0B
:10071000020263EBE073009821464FEAE074B8EB05
:10072000000061EB0401E9E783F000435BE781F03F
:10073000004158E7064C074D06E0E06840F0010331
:1007400094E8070098471034AC42F6D3FFF7F4FC66
:100750006442000884420008202A04DB203A00FAA0
:1007600002F1002070479140C2F1200320FA03F308
:10077000194390407047202A06DBCB17203A41FAF4
:1007800002F043EAE07306E041FA02F3D040C2F11E
:100790002002914008431946704710B54FF400609D
:1007A00000F0C2F94FF4805000F0BEF910BD10B552
:1007B000202000F0B9F9402000F0B6F9802000F0C8
:1007C000B3F910BD0021074AD1610749096941F019
:1007D0000401054A11611146096941F040011161A6
:1007E00070470000A8000020002002400021074AB6
:1007F000D1610749096941F00201054A11611146B9
:100800004861096941F0400111617047A80000206A
:10081000002002400022054BDA61054A126942F0CD
:100820000102034B1A61018070470000A8000020FC
:10083000002002401748C06810F0100F05D016487D
:10084000C06940F002001449C8611248C06810F045
:10085000040F05D01048C06940F001000E49C8617E
:100860000C48C06910F0010F0DD00B48C06940F072
:1008700004000949C86100BF0648C06920F00100B2
:100880000449C86100BF00BF14200249C86000BF0E
:100890007047000000200240A800002070B5044608
:1008A00000F0F4FA054609E0601C07D024B100F01E
:1008B000EDFA401BA04201D9032070BD1148C06869
:1008C00010F0010FF0D10F48C06810F0200F04D0D5
:1008D00000BF20200B49C86000BF0A48C06810F064
:1008E000100F09D10748C06810F0040F04D1054863
:1008F000C06910F0010F03D0FFF79CFF0120DCE777
:100900000020DAE70020024031B5002400F0BEFAF2
:10091000044600BF00F0BAFA001B00998842F9D3E0
:1009200038BD00002DE9F04104460E4601270025A0
:1009300000BF2648007E012802D10220BDE8F081D8
:1009400001202249087600BF2068022813D14CF20A
:100950005030FFF7A3FF90BB0120FFF733FF4CF2AD
:100960005030FFF79BFF07461948006920F004004C
:100970001749086123E04CF25030FFF78FFFF0B9C0
:100980004FF0FF303060A56812E02846FFF72EFFD9
:100990004CF25030FFF782FF07460D48006920F007
:1009A00002000B4908610FB1356007E005F50065ED
:1009B000D4E9021001EBC020A842E6D800BF00BF76
:1009C00000200249087600BF3846B7E7A80000209B
:1009D000002002400348006940F08000014908619E
:1009E00000207047002002402DE9FE4F05468B464F
:1009F000174698464FF001064FF00004204602903B
:100A000000BF2448007E012802D10220BDE8FE8FED
:100A100001202049087600BF4CF25030FFF73EFF1E
:100A2000064686BB012D02D10120029006E0022D70
:100A300002D10220029001E00420029000241EE076
:100A40002201B946C24648465146FFF78DFB80B2A7
:100A50000190022000FB04B000900199FFF7DAFE3C
:100A60004CF25030FFF71AFF06460B48006920F0A1
:100A700001000949086106B104E0601CC4B2029893
:100A80008442DDDB00BF00BF00200249087600BFC2
:100A90003046BBE7A800002000200240074800695C
:100AA00010F0800F05D006480449486005484860AA
:100AB00001E0012070470020FCE700000020024018
:100AC00023016745AB89EFCD10B50446202C05D135
:100AD00002F0FAFC3220FFF717FF20E0402C05D18E
:100AE00002F026FD3220FFF70FFF18E0802C05D121
:100AF00002F0A2FC3220FFF707FF10E0B4F5006F10
:100B000005D102F015FD3220FFF7FEFE07E0B4F537
:100B1000805F04D102F04CFD3220FFF7F5FE014862
:100B2000046010BD1404014010B504460348006879
:100B3000204202D02046FFF7C7FF10BD1404014039
:100B40002DE9F847024600240020002584460027AE
:100B500000237BE14FF0010808FA03F4D1F800808C
:100B600008EA0400A0427DD1DFF8ECA2D1F80480AD
:100B7000A8EB0A09D0453AD014DCB8F1030F50D0E5
:100B800009DCB8F1000F31D0B8F1010F1CD0B8F179
:100B9000020F49D120E0B8F1110F18D0B8F1120FAF
:100BA00042D11EE0B9F5881F25D006DCB9F5803F9B
:100BB00020D0B9F5801F37D11AE0B9F5001F18D041
:100BC000B9F5041F30D117E0D1F80CC02DE0D1F8F1
:100BD0000C8008F1040C28E0D1F80C8008F1080C16
:100BE00023E0D1F80C8008F10C0C1EE000BF00BF20
:100BF00000BF00BF00BF00BFD1F80880B8F1000FF0
:100C000002D14FF0040C0BE0D1F80880B8F1010FCD
:100C100003D14FF0080C146102E04FF0080C54614E
:100C200003E04FF0000C00E000BF00BFFF2801D838
:100C3000904601E002F104084646FF2802D84FEA38
:100C4000830803E0A3F108084FEA88084746D6F86E
:100C500000804FF00F0909FA07F928EA09080CFA91
:100C600007F900E07AE048EA0908C6F80080D1F800
:100C7000048008F08058B8F1805F6FD100BFDFF8C2
:100C8000DC81D8F8188048F00108DFF8D091C9F865
:100C90001880C846D8F8188008F00108CDF8008000
:100CA00000BF00BF4FEAB9384FEA930958F82950FE
:100CB0004FEA83784FEA18794FF00F0808FA09F8DD
:100CC00025EA0805DFF89881424502D14FF0000877
:100CD00024E0DFF89081424502D14FF001081DE089
:100CE000DFF88481424502D14FF0020816E0DFF8B8
:100CF0007C81424502D14FF003080FE0DFF870819C
:100D0000424502D14FF0040808E0DFF8688142450F
:100D100002D14FF0050801E04FF006084FEA837951
:100D20004FEA197908FA09F848EA0505DFF8488119
:100D30004FEA930948F82950D1F8048008F4803824
:100D4000B8F5803F0BD1DFF83481D8F8008048EA4D
:100D50000008DFF82891C9F800800AE075E0DFF8A4
:100D60001C81D8F8008028EA0008DFF81091C9F843
:100D70000080D1F8048008F40038B8F5003F0ED1A7
:100D8000DFF8F88008F10408D8F8008048EA000885
:100D9000DFF8E89009F10409C9F800800DE0DFF8F8
:100DA000DC8008F10408D8F8008028EA0008DFF8A1
:100DB000CC9009F10409C9F80080D1F8048008F446
:100DC0008018B8F5801F0ED1DFF8B08008F1080850
:100DD000D8F8008048EA0008DFF8A09009F1080977
:100DE000C9F800800DE0DFF8948008F10808D8F811
:100DF000008028EA0008DFF8849009F10809C9F8A2
:100E00000080D1F8048008F40018B8F5001F0ED156
:100E1000DFF8688008F10C08D8F8008048EA00087C
:100E2000DFF8589009F10C09C9F800800DE0DFF8EF
:100E30004C8008F10C08D8F8008028EA0008DFF898
:100E40003C9009F10C09C9F800805B1C102BFFF4E1
:100E500081AEBDE8F88700000000111000100240CC
:100E600000080140000C0140001001400014014046
:100E700000180140001C014008000140000401402E
:100E80000AB1016101E00B04036170470148006889
:100E9000704700000400002002480068401C01491F
:100EA000086070470400002010B50848006840F052
:100EB000100006490860032000F07CF8002000F0D4
:100EC00007F800F017F8002010BD000000200240D5
:100ED00070B5044600F096FA4FF47A71B0FBF1F564
:100EE000284600F0BEFF00222146501E00F024F8E4
:100EF000002070BD10B5032000F05CF80022114600
:100F0000501E00F019F80448406820F0E06040F0FE
:100F100080600149486010BD0000014000BF00F042
:100F20001F020121914042094FF0E02303EB8202AE
:100F3000C2F8001100BF70472DE9F05F80460D46F2
:100F40001646002701F00CFB074639462A46334671
:100F500001F00700C0F1070ABAF1040F02D94FF0FF
:100F6000040A01E0C0F1070AD14600F1040ABAF10F
:100F7000070F02D24FF0000A01E0A0F1030AD446A5
:100F80004FF0010A0AFA09FAAAF1010A0AEA020A6A
:100F90000AFA0CFA4FF0010B0BFA0CFBABF1010B48
:100FA0000BEA030B4AEA0B042146404601F0E0FA43
:100FB000BDE8F09F00BF00F00702064B19684FF62E
:100FC000FF031940044B0B4343EA0221014B196014
:100FD00000BF70470CED00E00000FA0570B5044654
:100FE0000D460026FE48006800F00700A8426ED2B9
:100FF000FB48006820F007002843F94908600846CC
:10100000006800F00700A84201D0012070BD2078E0
:1010100000F00200022807D1F248406820F0F000FA
:10102000A1680843EF494860207810F0010F6ED0A6
:10103000606801282CD12020010391FAA1F1B1FAB6
:1010400081F108430121B1EB601F02D1E54800683E
:101050000FE02020010391FAA1F1B1FA81F10843D8
:101060000221B1EB601F02D1DE48006A01E0DD48D9
:10107000406A20210A0392FAA2F2B2FA82F21143E4
:1010800001F01F0201219140084260D10120BDE71B
:10109000606802282DD12020010591FAA1F1B1FA52
:1010A00081F108430121B1EB601F02D1CD480068F6
:1010B00010E02020010591FAA1F1B1FA81F1084375
:1010C0000221B1EB601F03D1C648006A02E081E053
:1010D000C448406A20210A0592FAA2F2B2FA82F2CA
:1010E000114301F01F020121914008422FD101203C
:1010F0008CE72020022191FAA1F1B1FA81F1084395
:101100000121B1EB601F03D1B648006810E051E146
:101110002020022191FAA1F1B1FA81F108430221C4
:10112000B1EB601F02D1AF48006A01E0AD48406AF0
:101130002021022292FAA2F2B2FA82F2114301F0C5
:101140001F0201219140084201D101205EE7A5481C
:10115000406820F0030061680843A2494860FFF737
:1011600095FE06466068012810D108E0FFF78EFE64
:10117000801B41F28831884201D9032046E7994813
:10118000406800F00C000428F0D113E160680228E8
:1011900010D108E0FFF77AFE801B41F288318842C7
:1011A00001D9032032E78F48406800F00C0008287E
:1011B000F0D1FFE008E0FFF769FE801B41F28831C3
:1011C000884201D9032021E78648406810F00C0FBF
:1011D000F1D1EFE0207800F00200022807D1814829
:1011E000406820F0F000A16808437E4948602078FC
:1011F00010F0010F7BD0606801282CD12020010362
:1012000091FAA1F1B1FA81F108430121B1EB601F1C
:1012100002D1744800680FE02020010391FAA1F187
:10122000B1FA81F108430221B1EB601F02D16D4890
:10123000006A01E06B48406A20210A0392FAA2F298
:10124000B2FA82F2114301F01F02012191400842DB
:101250005FD10120DAE6606802282CD12020010548
:1012600091FAA1F1B1FA81F108430121B1EB601FBC
:1012700002D15C4800680FE02020010591FAA1F13D
:10128000B1FA81F108430221B1EB601F02D1554848
:10129000006A01E05348406A20210A0592FAA2F24E
:1012A000B2FA82F2114301F01F020121914008427B
:1012B0002FD10120AAE62020022191FAA1F1B1FA52
:1012C00081F108430121B1EB601F02D1454800685C
:1012D00010E02020022191FAA1F1B1FA81F1084336
:1012E0000221B1EB601F03D13E48006A02E052E0E8
:1012F0003C48406A2021022292FAA2F2B2FA82F21B
:10130000114301F01F0201219140084201D1012047
:101310007CE63448406820F00300616808433149A6
:101320004860FFF7B3FD06466068012810D108E069
:10133000FFF7ACFD801B41F28831884201D90320C0
:1013400064E62848406800F00C000428F0D122E050
:101350006068022810D108E0FFF798FD801B41F279
:101360008831884201D9032050E61E48406800F0C9
:101370000C000828F0D10EE008E0FFF787FD801B85
:1013800041F28831884201D903203FE61548406880
:1013900010F00C0FF1D11248006820F0070028432C
:1013A0000F4908600846006800F00700A84201D015
:1013B00001202BE6207800F00400042807D109481A
:1013C000406820F4E060E1680843064948602078FE
:1013D00000F0080008280ED10248406804E0000030
:1013E000002002400010024020F46050216940EAD1
:1013F000C100034948600020FFF76AFD002005E6B0
:101400000010024000B500F019F80949496801F0E0
:10141000F001F02292FAA2F2B2FA82F2D140054A29
:10142000515CC840044908600846006800BD0000DF
:1014300000100240EC3D000800000020F0B585B02F
:101440000FF28C0C9CE8E01001A8A0E8E01024A5A5
:101450002D68009500210024002200230020214D4A
:10146000696811F00C052DD0042D02D0082D28D16B
:1014700001E01D4828E001F470154FF4701696FA4B
:10148000A6F6B6FA86F6F54001AE735D11F4803F1C
:1014900012D0144D6D6805F400354FF4003696FAFD
:1014A000A6F6B6FA86F6F5401DF805400E4DB5FBDA
:1014B000F4F505FB03F202E00C4D03FB05F21046C8
:1014C00002E000BF084800BF00BF05B0F0BD00004B
:1014D00002030405060708090A0B0C0D0E0F101075
:1014E000010200000010024000127A0000093D00D5
:1014F00038B504460025207810F0010F78D0FC485C
:10150000406800F00C0004280CD0F948406800F056
:101510000C00082836D1F648406800F48030B0F559
:10152000803F2FD12020010391FAA1F1B1FA81F17E
:1015300008430121B1EB601F02D1ED4800680FE0C4
:101540002020010391FAA1F1B1FA81F108430221AF
:10155000B1EB601F02D1E648006A01E0E448406A4E
:1015600020210A0392FAA2F2B2FA82F2114301F0A8
:101570001F02012191400842C0D06068002837D185
:10158000012038BD00BFDA48006820F48030D84917
:1015900008600846006820F48020086000BFFFF75C
:1015A00075FC054608E0FFF771FC401B41F28831ED
:1015B000884201D90320E4E72020010391FAA1F138
:1015C000B1FA81F108430121B1EB601F02D1C84893
:1015D000006810E02020010391FAA1F1B1FA81F135
:1015E00008430221B1EB601F03D1C148006A02E049
:1015F000B8E0BF48406A20210A0392FAA2F2B2FA88
:1016000082F2114301F01F02012191400842CAD128
:1016100000BF6068B0F5803F06D1B548006840F46F
:101620008030B349086028E0606858B9B048006865
:1016300020F48030AE4908600846006820F480201D
:1016400008601AE06068B0F5A02F0BD1A8480068C8
:1016500040F48020A64908600846006840F48030C5
:1016600008600AE0A248006820F48030A0490860C1
:101670000846006820F48020086000BF6068C0B39E
:10168000FFF704FC054608E0FFF700FC401B41F2B1
:101690008831884201D9032073E72020010391FAA1
:1016A000A1F1B1FA81F108430121B1EB601F02D130
:1016B0008F4800680FE02020010391FAA1F1B1FAF0
:1016C00081F108430221B1EB601F02D18848006A12
:1016D00001E08748406A20210A0392FAA2F2B2FA96
:1016E00082F2114301F01F02012191400842CBD048
:1016F00038E0FFE7FFF7CAFB054608E0FFF7C6FB47
:10170000401B41F28831884201D9032039E720206B
:10171000010391FAA1F1B1FA81F108430121B1EB82
:10172000601F02D1724800680FE02020010391FA87
:10173000A1F1B1FA81F108430221B1EB601F02D19E
:101740006B48006A01E06A48406A20210A0392FA65
:10175000A2F2B2FA82F2114301F01F02012191407C
:101760000842CBD1207800F0020002284DD1604819
:10177000406810F00C0F0AD05D48406800F00C0083
:10178000082843D15A48406810F4803F3ED12020B9
:10179000022191FAA1F1B1FA81F108430121B1EBE3
:1017A000601F02D1524800680FE02020022191FA08
:1017B000A1F1B1FA81F108430221B1EB601F02D11E
:1017C0004B48006A01E04A48406A2021022292FA0E
:1017D000A2F2B2FA82F2114301F01F0201219140FC
:1017E000084204D02069012801D00120C9E6404800
:1017F000006820F0F800F82292FAA2F2B2FA82F21F
:101800006169914008433A49086092E0206970B3E9
:10181000012191FAA1F0B0FA80F0364A42F8201086
:10182000FFF734FB054606E0FFF730FB401B64285A
:1018300001D90320A5E62020022191FAA1F1B1FAF5
:1018400081F108430121B1EB601F02D128480068F3
:1018500010E02020022191FAA1F1B1FA81F10843B0
:101860000221B1EB601F03D12148006A02E01DE0B4
:101870001F48406A2021022292FAA2F2B2FA82F2B2
:10188000114301F01F02012191400842CCD01848B9
:10189000006820F0F800F82292FAA2F2B2FA82F27E
:1018A0006169914008431249086042E0002101202B
:1018B00090FAA0F0B0FA80F00E4A42F82010FFF73C
:1018C000E5FA054606E0FFF7E1FA401B642801D976
:1018D000032056E62020022191FAA1F1B1FA81F10C
:1018E00008430121B1EB601F06D10148006813E0F5
:1018F00000100240000042422020022191FAA1F192
:10190000B1FA81F108430221B1EB601F02D1F7481F
:10191000006A01E0F548406A2021022292FAA2F210
:10192000B2FA82F2114301F01F02012191400842F4
:10193000C9D1207800F00800082843D1A06970B30D
:10194000012191FAA1F0B0FA80F0E94A42F82010A2
:10195000FFF79CFA054606E0FFF798FA401B64285B
:1019600001D903200DE66020022191FAA1F1B1FA1C
:1019700081F108430121B1EB601F02D1DB4800680F
:1019800010E06020022191FAA1F1B1FA81F108433F
:101990000221B1EB601F03D1D448006A02E012E0DB
:1019A000D248406A6021022292FAA2F2B2FA82F28E
:1019B000114301F01F02012191400842CCD00120C7
:1019C000FEF7A2FF3EE00021012090FAA0F0B0FA5D
:1019D00080F0C74A42F82010FFF758FA054606E0A3
:1019E000FFF754FA401B642801D90320C9E56020A1
:1019F000022191FAA1F1B1FA81F108430121B1EB81
:101A0000601F02D1B94800680FE06020022191FAFE
:101A1000A1F1B1FA81F108430221B1EB601F02D1BB
:101A2000B248006A01E0B148406A6021022292FA9D
:101A3000A2F2B2FA82F2114301F01F020121914099
:101A40000842CDD1207800F00400042873D100BFF3
:101A5000A648C06940F08050A449C8610846C069E2
:101A600000F08050009000BF00BFA248006840F422
:101A70008070A0490860FFF709FA054606E0FFF705
:101A800005FA401B642801D903207AE599480068CB
:101A900010F4807FF3D000BF9448006A20F001006A
:101AA000924908620846006A20F00400086200BFFC
:101AB000FFF7ECF9054608E0FFF7E8F9401B41F2B3
:101AC0008831884201D903205BE54020022191FA48
:101AD000A1F1B1FA81F108430121B1EB601F02D1FC
:101AE000824800680FE04020022191FAA1F1B1FA8A
:101AF00081F108430221B1EB601F02D17B48006AEB
:101B000001E07A48406A4021022292FAA2F2B2FA37
:101B100082F2114301F01F02012191400842CBD112
:101B200000BFE068012807D17048006A40F001005A
:101B30006E49086228E09CE0E06858B96B48006A8A
:101B400020F00100694908620846006A20F004009C
:101B5000086219E0E06805280BD16448006A40F08B
:101B60000400624908620846006A40F00100086209
:101B70000AE05E48006A20F001005C4908620846FD
:101B8000006A20F00400086200BFE068C0B3FFF7FD
:101B90007DF9054608E0FFF779F9401B41F28831ED
:101BA000884201D90320ECE44020022191FAA1F1FE
:101BB000B1FA81F108430121B1EB601F02D14B481A
:101BC00000680FE04020022191FAA1F1B1FA81F101
:101BD00008430221B1EB601F02D14448006A01E0D2
:101BE0004248406A4021022292FAA2F2B2FA82F2FC
:101BF000114301F01F02012191400842CBD038E08F
:101C0000FFE7FFF743F9054608E0FFF73FF9401B00
:101C100041F28831884201D90320B2E440200221F8
:101C200091FAA1F1B1FA81F108430121B1EB601FF2
:101C300002D12E4800680FE04020022191FAA1F164
:101C4000B1FA81F108430221B1EB601F02D12748AC
:101C5000006A01E02548406A4021022292FAA2F27D
:101C6000B2FA82F2114301F01F02012191400842B1
:101C7000CBD1E069002873D01C48406800F00C000C
:101C800008286ED0E06902286CD10021C00590FAC6
:101C9000A0F0B0FA80F0184A42F82010FFF7F6F8EA
:101CA000054606E0FFF7F2F8401B642801D903203F
:101CB00067E42020010591FAA1F1B1FA81F108430E
:101CC0000121B1EB601F02D10848006818E0202014
:101CD000010591FAA1F1B1FA81F108430221B1EBBA
:101CE000601F0BD10148006A0AE0000000100240AA
:101CF0008004424200700040000042425648406A60
:101D000020210A0592FAA2F2B2FA82F2114301F0FE
:101D10001F02012191400842C4D1206AB0F5803FE2
:101D200007D14D48406820F40030A16808434A4973
:101D30004860D4E9080108434749496821F474110F
:101D40000843454948600121080690FAA0F0B0FA1E
:101D500080F0424A42F82010FFF798F8054609E063
:101D600077E074E032E0FFF791F8401B642801D976
:101D7000032006E42020010591FAA1F1B1FA81F1D6
:101D800008430121B1EB601F02D1334800680FE026
:101D90002020010591FAA1F1B1FA81F10843022155
:101DA000B1EB601F02D12C48006A01E02A48406A6A
:101DB00020210A0592FAA2F2B2FA82F2114301F04E
:101DC0001F02012191400842CDD042E000214FF096
:101DD000807090FAA0F0B0FA80F0204A42F820100B
:101DE000FFF754F8054606E0FFF750F8401B64285B
:101DF00001D9032050E42020010591FAA1F1B1FAA4
:101E000081F108430121B1EB601F02D11248006843
:101E10000FE02020010591FAA1F1B1FA81F1084308
:101E20000221B1EB601F02D10B48006A01E00A48B1
:101E3000406A20210A0592FAA2F2B2FA82F2114314
:101E400001F01F02012191400842CDD101E00120A3
:101E500022E4002020E40000001002400000424282
:101E6000704770B504462546681EB0F1807F01D3E7
:101E700001200FE0681E4FF0E02148610F214FF074
:101E8000FF3000F075FB00204FF0E0218861072053
:101E90000861002070BD10B5FFF7E2FF10BD70476C
:101EA0007047024600BF92F83800012801D1022095
:101EB0007047012082F8380000BF022082F8390004
:101EC0001068406820F0700013685860106840681F
:101ED0000B681843136858601068806820F0800011
:101EE00013689860106880684B681843136898609E
:101EF000012082F8390000BF002082F8380000BFBE
:101F000000BFD5E710B504460CB9012010BD94F808
:101F1000390028B9002084F83800204600F00CF879
:101F2000022084F83900211D206800F0A5FB012063
:101F300084F839000020E9E738B504460D492068E7
:101F4000884215D100BF0C48C06940F002000A4920
:101F5000C8610846C06900F00200009000BF00BFE1
:101F6000002211461D20FEF7E7FF1D20FEF7D6FFD9
:101F700038BD00000004004000100240014608681F
:101F8000C06840F001000A68D0600868006840F04E
:101F900001000A681060002070472DE9F0410446F6
:101FA0000D46002600BF94F83800012802D1022017
:101FB000BDE8F081012084F8380000BF022084F8D9
:101FC00039002068866826F0770626F47F46206868
:101FD0008660286850283BD00CDC202860D004DCC8
:101FE000002853D0102865D155E030285DD0402816
:101FF00060D141E0602835D070280DD0B0F5805F09
:1020000003D0B0F5005F55D115E02068806820F05E
:102010000700216888604EE0D5E902136A682068ED
:1020200000F072FB2068866826F0770646F0770697
:10203000206886603FE0D5E902136A68206800F0F6
:1020400063FB2068806840F480402168886032E04B
:10205000EA686968206800F06DFB5021206800F094
:102060005FFB28E0EA686968206800F078FB60217F
:10207000206800F055FB1EE0EA686968206800F0FF
:1020800059FB4021206800F04BFB14E00021206840
:1020900000F046FB0FE01021206800F041FB0AE051
:1020A0002021206800F03CFB05E03021206800F092
:1020B00037FB00E000BF00BF012084F8390000BFFB
:1020C000002084F8380000BF00BF71E7704710B5EA
:1020D000044620680069C0F34000D8B12068C06899
:1020E000C0F34000B0B16FF0020021680861012028
:1020F00020762068806910F0030F03D02046FFF798
:10210000E5FF05E0204600F0ADF8204600F0ABF812
:102110000020207620680069C0F38000D8B12068D4
:10212000C068C0F38000B0B16FF00400216808619E
:10213000022020762068806910F4407F03D020467A
:10214000FFF7C4FF05E0204600F08CF8204600F0C1
:102150008AF80020207620680069C0F3C000D8B15A
:102160002068C068C0F3C000B0B16FF008002168FB
:102170000861042020762068C06910F0030F03D0A6
:102180002046FFF7A3FF05E0204600F06BF820464D
:1021900000F069F80020207620680069C0F3001084
:1021A000D8B12068C068C0F30010B0B16FF0100063
:1021B00021680861082020762068C06910F4407FFB
:1021C00003D02046FFF782FF05E0204600F04AF8E2
:1021D000204600F048F8002020762068006910F0C2
:1021E000010F0BD02068C06810F0010F06D06FF00F
:1021F000010021680861204600F036F82068006977
:10220000C0F3C01058B12068C068C0F3C01030B12E
:102210006FF08000216808612046FFF740FE2068CB
:102220000069C0F3801058B12068C068C0F3801006
:1022300030B16FF0400021680861204600F015F8C9
:1022400020680069C0F3401058B12068C068C0F32E
:10225000401030B16FF02000216808612046FFF780
:102260001FFE10BD704770477047704710B50121C1
:10227000002000F01FF90221002000F01BF910BD22
:1022800070B506460D46012D01D1402409E0032D0D
:1022900001D1502405E00DB9002402E0022D00D147
:1022A0001024701E2044C4B2204600F051F970BDC5
:1022B00070B50446207840F0200061780843A1788A
:1022C00040EA010600F036F8002202211848FEF725
:1022D000D7FD002201211648FEF7D2FD0F20FEF7A0
:1022E00013FB002507E0032000F002F90520FEF7AC
:1022F0000BFB681CC5B2032DF5DB022000F0F8F8DB
:102300000520FEF701FB3146002000F0D3F80C2633
:102310003146002000F0CEF801263146002000F0C2
:10232000C9F806263146002000F0C4F870BD000050
:102330000010014000B585B000BF0D48806940F035
:1023400010000B4988610846806900F01000009079
:1023500000BF00BF012002900320049040F26330D0
:10236000019001A90348FEF7EBFB05B000BD00009A
:1023700000100240001001402DE9FC41804640461B
:10238000FEF774F806466A4601F00AF804460D4660
:1023900000214046FEF77EF802D22D2000F04CF8D6
:1023A000DDE90001FEF749F8064600F017F82E2097
:1023B00000F042F80022084B20462946FDF7B2FF04
:1023C00004460D4620462946FEF737F8064600F03B
:1023D00005F8BDE8FC8100000000594070B588B0E8
:1023E0000446254600263CB9302000F025F8302070
:1023F00000F022F808B070BD0BE00A20B5FBF0F148
:1024000000FB115030300DF806000A20B5FBF0F546
:10241000761C002DF1D10A2C02D2302000F00CF8ED
:1024200003E01DF8060000F007F83000A6F10106F1
:10243000F7D100BFDEE7000010B50446072C06D038
:10244000082C16D00A2C0FD00C2C17D104E0012137
:102450000846FFF715FF1CE00121002000F02AF8D4
:102460000220FEF751FA14E002210120FFF708FFD5
:102470000FE01021002000F01DF80AE07F2C03DDA2
:10248000A4F1C00004490C5C2146012000F012F8C0
:1024900000BF00BF10BD0000FC3D000870B5054640
:1024A0002C4603E02078FFF7C7FF641C2078002843
:1024B000F8D170BD70B504460D462CB9002201213B
:1024C0000A48FEF7DDFC06E0012C04D1012211468A
:1024D0000648FEF7D5FC0120FEF716FA281100F099
:1024E00007F805F00F0000F003F870BD0010014080
:1024F00010B5044604F0010220211448FEF7C0FC88
:10250000C4F3400240211148FEF7BAFCC4F3800234
:102510004FF480710D48FEF7B3FCC4F3C0024FF4D2
:1025200000710A48FEF7ACFC0120FEF7EDF901222C
:1025300002210648FEF7A4FC0120FEF7E5F900227F
:1025400002210248FEF79CFC10BD00000010014073
:1025500010B5044644F080010020FFF7ABFF10BD2A
:1025600002480068C0F30220704700000CED00E054
:1025700010B5002807DA0A07140E054A00F00F0309
:102580001B1FD45403E00A07130E024A135410BD54
:1025900018ED00E000E400E010B5FEF77DFCFFF769
:1025A0007AFC10BD00B591B001200790000408909E
:1025B0000020099002200E90C1030F914FF4E0110A
:1025C000109107A8FEF794FF0520029002200390C7
:1025D000002004904FF480600590002006900221B6
:1025E00002A8FEF7FBFC00BF0748806940F001002D
:1025F000054988610846806900F00100019000BF2C
:1026000000BF11B000BD000000100240114800687A
:1026100040F001000F490860084640680E49084034
:102620000C494860084600680C49084009490860A0
:102630000846006820F4802008600846406820F4BE
:10264000FE0048604FF41F008860C803044908601A
:1026500070470000001002400000FFF8FFFFF6FE88
:1026600008ED00E010B50348FFF731FD01F062F915
:1026700010BD0000D8000020002202681D4B9842C7
:102680000ED01D4B98420BD0B0F1804F08D01B4BA1
:10269000984205D01A4B984202D01A4B984203D167
:1026A00022F070024B681A43124B98420ED0124B24
:1026B00098420BD0B0F1804F08D0104B984205D013
:1026C0000F4B984202D00F4B984203D122F4407234
:1026D000CB681A4302608B68C3620B688362054B48
:1026E000984202D0044B984201D10B690363012345
:1026F00043617047002C0140003401400004004059
:1027000000080040000C004030B50C4600218168F4
:1027100021F47F4142EA032525432943816030BDEE
:102720000A460021816821F0700142F00703194335
:102730008160704730B50B46144600210022026AC2
:10274000056A25F001050562816921F0F00141EA81
:10275000041122F00A021A438161026230BD30B5D1
:102760000B46144600210022056A25F0100505627B
:102770008169026A21F4704141EA043122F0A00229
:1027800042EA03128161026230BD02E008C8121FF2
:1027900008C1002AFAD170477047002001E001C14A
:1027A000121F002AFBD1704710B50446002C4DD0F3
:1027B000444800684449884207D1444800F044F93D
:1027C0004249087900F098F87BE03E4800684049AB
:1027D000884207D13F4800F037F93E49087900F0B8
:1027E0008BF86EE0374800683B49884207D13B4888
:1027F00000F02AF93949087900F07EF861E03148A3
:1028000000683749884207D1364800F01DF935493C
:10281000087900F071F854E02A480068324988428B
:1028200007D1324800F010F93049087900F064F817
:1028300047E0244800682E49884242D12D4800F0E4
:1028400003F92C49087900F057F83AE01D48006870
:102850001D49884204D11D49087900F04DF830E047
:10286000184800681A49884204D11A49087900F0CA
:1028700043F826E0134800681749884204D11749F5
:10288000087900F039F81CE00E48006814498842C5
:1028900004D11449087900F02FF812E009480068C3
:1028A0001149884204D11149087900F025F808E05F
:1028B000044800680E49884203D10E49087900F0A7
:1028C0001BF810BD140000206440000860000020C8
:1028D0009440000868000020C440000870000020F8
:1028E000F440000878000020244100088000002007
:1028F000544100088800002010B504460021012042
:10290000FFF7BEFC0E4909684869FFF7C7FD0221C1
:102910000846FFF7B5FC0BA0FFF7C0FD0CA0FFF7C2
:10292000BDFD02210C20FFF7ABFC1CB909A0FFF78D
:10293000B5FD04E0012C02D108A0FFF7AFFD10BDEA
:1029400014000020D1EEF1F2EEFFEDE8E53A0000D0
:1029500020202000C2EAEB2E00000000CEF2EAEBBD
:102960002E00000010B5FFF781FC00210120FFF7C9
:1029700087FC0EA0FFF792FD0F4800F0A7F80F218B
:102980000E4801F051F800BF0C4800780028FBD039
:102990000B4800F09BF80F210A4801F045F800BFF2
:1029A000084800780028FBD010BD0000436C65612A
:1029B0006E696E672E2E2E006800002094000020A5
:1029C000780000209800002010B5FFF74FFC002190
:1029D0000120FFF755FC0EA0FFF760FD104800F046
:1029E00075F81E210F4801F01FF800BF0D48007850
:1029F0000028FBD00C4800F069F81E210B4801F0BC
:102A000013F800BF094800780028FBD010BD000073
:102A10004761732054616B696E672E2E2E00000093
:102A2000600000209000002068000020940000203A
:102A300010B5FFF797FFFFF7C7FF022001490870A5
:102A400010BD00000800002010B5044620790128C0
:102A500007D100202071E18801222068FEF710FADA
:102A600008E0207930B901202071E1880022206837
:102A7000FEF706FA10BD000010B5094800F01CF87A
:102A8000084800F019F8084800F016F8074800F068
:102A900013F8074800F010F8064800F00DF810BDD4
:102AA00060000020680000207000002078000020F6
:102AB000800000208800002010B50446012020710D
:102AC000E18800222068FEF7DBF910BD10B504464E
:102AD00000202071E18801222068FEF7D1F910BDA5
:102AE00000B585B000BF1648806940F00400144965
:102AF00088610846806900F00400009000BF00BFB4
:102B00001048029002200390032004904FF4C75015
:102B1000019001A90C48FEF713F8012205211720A6
:102B2000FEF70AFA012205212820FEF705FA1720F0
:102B3000FEF7F4F92820FEF7F1F905B000BD00001A
:102B400000100240000021100008014000B585B0CF
:102B500000BF2048806940F004001E498861084693
:102B6000806900F00400009000BF00BF00BF08466D
:102B7000806940F0080088610846806900F008001C
:102B8000009000BF00BF01200290032004900120AC
:102B9000039040F20C40019001A90F48FDF7D0FFCF
:102BA000012002900320049001200390382001901E
:102BB00001A90A48FDF7C4FF002240F20C41064873
:102BC000FEF75EF9002238210448FEF759F905B0F6
:102BD00000BD00000010024000080140000C014050
:102BE00010B5FFF77DFF10BD10B5164816490860F7
:102BF0000420C88001200871124814490860082088
:102C0000C880012008710F48114908600015C8806C
:102C1000012008710F48104908600820C880012071
:102C200008710C480D4908601020C8800120087107
:102C300008480B4908602020C88001200871FFF770
:102C400085FF10BD000801406000002068000020E2
:102C500070000020000C014078000020800000205F
:102C60008800002000B587B01548164908604FF667
:102C7000FF70486000211348816040F2E731C16075
:102C800000210161FFF73EF90E48FFF777F94FF495
:102C90008050039003A90B48FFF77FF900200190B3
:102CA000029001A90748FFF7FCF80648FFF72AF948
:102CB0000448FFF763F900F011FE07B000BD000003
:102CC00000040040D800002010B50446012C7CD13F
:102CD000FC480068FC49884213D1FC484088401CED
:102CE00000B2FA494880B1F90410884203DDF74880
:102CF0000088F6494880F549498888B200F05AFAB8
:102D000041E2F0480068F249884213D1F148408816
:102D1000401C00B2EF494880B1F90410884203DD3D
:102D2000EC480088EB494880EA49498888B200F0BD
:102D300041FA28E2E3480068E749884213D1E748AE
:102D40004088401C00B2E5494880B1F9041088422F
:102D500003DDE2480088E1494880E049498888B2BB
:102D600000F028FA0FE2D7480068DD49884213D105
:102D7000DC484088401C00B2DA494880B1F90410B0
:102D8000884203DDD7480088D6494880D54949881C
:102D900088B200F00FFAF6E1CA480068D2498842CA
:102DA00014D1D2484088401C00B2D0494880B1F9C3
:102DB0000410884203DDCD480088CC494880CB49C7
:102DC000498888B200F0F6F9DDE166E0BD480068A8
:102DD000C749884213D1C7484088401C00B2C54942
:102DE0004880B1F90410884203DDC2480088C14917
:102DF0004880C049498888B200F0DCF9C3E1B14895
:102E00000068BD49884213D1BC484088401C00B2CC
:102E1000BA494880B1F90410884203DDB7480088F8
:102E2000B6494880B549498888B200F0C3F9AAE19B
:102E3000A4480068B249884216D1B249B248006835
:102E4000FDF7A2F9B0490860B0480168AE480068D3
:102E5000FDF72AFB03D2AE480068AB490860AA48D8
:102E6000006800F0C9F98EE196480068A9498842D7
:102E700091D1A9484088401C00B2A7494880B1F9C7
:102E80000410884203DDA4480088A3494880A24971
:102E9000498888B200F08EF975E1022C7CD189480E
:102EA00000688949884213D188484088401E00B292
:102EB00086494880B1F90010884203DA8348808847
:102EC000824948808149498888B200F073F95AE103
:102ED0007C4800687E49884213D17E484088401E65
:102EE00000B27C494880B1F90010884203DA794881
:102EF0008088784948807749498888B200F05AF933
:102F000041E1704800687449884213D17348408891
:102F1000401E00B271494880B1F90010884203DABE
:102F20006E4880886D4948806C49498888B200F0B5
:102F300041F928E1634800686949884213D169482A
:102F40004088401E00B267494880B1F904108842A9
:102F500003DA64488088634948806249498888B2B6
:102F600000F028F90FE1574800685F49884214D102
:102F70005E484088401E00B25C494880B1F90010AC
:102F8000884203DA59488088584948805749498817
:102F900088B200F00FF9F6E066E04A48006854494C
:102FA000884213D153484088401E00B2514948809E
:102FB000B1F90010884203DA4E4880884D494880B4
:102FC0004C49498888B200F0F5F8DCE03D480068DB
:102FD0004949884213D149484088401E00B24749B8
:102FE0004880B1F90010884203DA44488088434998
:102FF00048804249498888B200F0DCF8C3E0314893
:1030000000683F49884216D13E493F480068FDF7B5
:103010000DF93D4908603E4801683B480068FDF7EE
:1030200039FA03D2394800683749086036480068E1
:1030300000F0E2F8A7E0234800683649884212D140
:1030400035484088401E00B233494880B1F900102D
:10305000884203DA304880882F4948802E494988C1
:1030600088B200F0A7F88EE0FCB91648006816494F
:10307000884205D11549498888B200F09BF882E062
:10308000104800681249884205D11249498888B21F
:1030900000F090F877E00B4800680F49884205D1AE
:1030A0000E49498888B200F085F86CE00548006850
:1030B0000B49884232D10B49498888B200F07AF82E
:1030C00061E00000140000209C3E00083000002059
:1030D000CC3E000836000020FC3E00083C000020EA
:1030E0002C3F0008420000205C3F00084800002000
:1030F0008C3F00084E000020BC3F00085400002018
:10310000EC3F00080AD7233C2400002028000020C0
:103110002C0000201C4000085A0000201A480068BB
:103120001A49884205D11A49498888B200F042F804
:1031300029E0154800681749884205D11649498891
:1031400088B200F037F81EE00F4800681349884243
:1031500005D11349498888B200F02CF813E00A48D9
:1031600000681049884204D10F48006800F044F814
:1031700009E0054800680D49884204D10C49498896
:1031800088B200F017F810BD140000205C3F000862
:10319000480000208C3F00084E000020BC3F000883
:1031A00054000020EC3F0008240000201C400008D0
:1031B0005A00002010B5044600210120FFF760F8F6
:1031C000094909684869FFF769F901210220FFF7F9
:1031D00057F806A0FFF762F92020FFF72DF92046E7
:1031E000FFF7FCF810BD000014000020CFE0F0E075
:1031F000ECE5F2F03A00000010B504460021012091
:10320000FFF73EF8094909684869FFF747F90121C6
:103210000220FFF735F806A0FFF740F92020FFF75E
:103220000BF92046FFF7A8F810BD0000140000209D
:10323000CFE0F0E0ECE5F2F03A00000008200349AE
:10324000487004208870002008707047100000202B
:1032500070B50546012407E0E1B20120FFF710F840
:103260002020FFF7E9F8641C032CF5DD681CC1B2CF
:103270000120FFF705F83E20FFF7DEF870BD0000E3
:1032800070B5FEF7F3FF2348006880682249884242
:1032900008D100210120FEF7F3FF20480068FFF766
:1032A000FDF80AE01B480068866800210120FEF74F
:1032B000E7FF7069FFF7F2F800BF1648056800687D
:1032C000407C022803DC13480068447C07E0114876
:1032D0000068407C032190FBF1F201FB120401E045
:1032E0006D68641E002CFBDC00240FE0601CC1B282
:1032F0000220FEF7C5FF6869FFF7D0F80649286885
:10330000884201D02D6800E002E0641C032CEDDB54
:1033100000BF70BD140000203C3E00080C000020DF
:1033200010B5FFF78BFF0448FEF7C2FFFEF79EFFC4
:1033300002480349086010BD10000020543E0008F8
:1033400014000020FDF7B0FDFFF72CF9FFF7E8FFB0
:10335000FFF796FF0020FFF77BFFFFF741FC00F02F
:103360006BF9FFF741FCFFF77DFC15E00B48007897
:1033700090B10A480078012802D1FFF759FB0BE011
:1033800006480078022807D1FFF77AFF0020FFF7F0
:103390005FFF002001490870E8E7000008000020F6
:1033A000002814BF4FF0010C4FF0000C4CEA010351
:1033B000DFF87CC09C45BCBFC2E900017047F0B497
:1033C000C1F30A53A3F2FF344FF0000C01F00043A5
:1033D000142C15DA002CBEBFC2E900C3F0BC704744
:1033E000144D25FA04F401EA040656EA000519D042
:1033F00021EA0403C2E900C3F0BC6246FDF794B9B8
:10340000332C0FDC143C4FF0FF3525FA04F4204236
:1034100008D020EA0403C2E90031F0BC1A460B468A
:10342000FDF782B9C2E90001F0BC19466046704759
:103430000000F07FFFFF0F0008B521480068007C06
:10344000022802D1FFF740FC38E01D480068007CEC
:10345000012803D10220FFF7A7F92FE018480068E0
:10346000407C032190FBF1F0009015480068006853
:103470001449884200D108BD11480068006810490D
:10348000086008460068407C032190FBF1F0009939
:10349000884208D00A480068407C032190FBF1F084
:1034A0000090FFF7EDFE06490968497C0323009A66
:1034B00003FB1211C8B2FFF7CBFE00BF00BFDAE773
:1034C000140000203C3E000808B517480068007C46
:1034D000022801D100F0ACFA13480068007C0128F2
:1034E00001D1FFF7C9FA1048006880680F49884287
:1034F00000D108BD0C48006880680B490860FFF7E0
:10350000BFFE09480068407C032190FBF1F0009069
:1035100005490968497C0323009A03FB1211C8B2CC
:10352000FFF796FE00BFE4E7140000203C3E0008D1
:1035300010B51C480068007C032803D101201A49FB
:10354000087010BD17480068C0681849884200D14B
:10355000F7E714480068C068124908600846006828
:10356000007C38B9FFF78CFE0E490968487CFFF7EC
:103570006FFE14E00B480068007C022805D1FEF7BE
:1035800075FE0020FFF7A0FB09E006480068007CFC
:10359000012804D1FEF76AFE0020FFF705F900BFFD
:1035A000CFE7000014000020080000203C3E000887
:1035B00010B51F480068007C022803D10120FFF7E6
:1035C00083FB32E01A480068007C012802D1FFF733
:1035D000EBF82AE016480068407C032190FBF1F4E8
:1035E0001348006840681349884200D110BD104854
:1035F000006840680E49086008460068407C032166
:1036000090FBF1F0A04206D009480068407C90FB96
:10361000F1F4FFF735FE06490968497C032202FBF5
:103620001411C8B2FFF714FE00BF00BFDEE70000B0
:10363000140000203C3E000810B59A489A490860E2
:1036400008460068006800B29849088096480068FB
:10365000001D9549086008460068006800B293495B
:10366000488091480068001D8F490860084600683E
:10367000006800B28D4988808B480068001D8A4927
:10368000086008460068006800B2894908808648DA
:103690000068001D8449086008460068006800B2A0
:1036A0008349488080480068001D7F4908600846BB
:1036B0000068006800B27E4988807B480068001D71
:1036C0007949086008460068006800B279490880B6
:1036D00075480068001D7449086008460068006865
:1036E00000B27449488070480068001D6E49086047
:1036F00008460068006800B26E4988806A48006821
:10370000001D6949086008460068006800B26A49FF
:10371000088065480068001D634908600846006825
:10372000006800B2644948805F480068001D5E4937
:10373000086008460068006800B25F4988805A48FF
:103740000068001D5849086008460068006800B21B
:103750005A49088054480068001D534908600846CB
:103760000068006800B2554948804F480068001D55
:103770004D49086008460068006800B24F498880DB
:1037800049480068001D484908600846006800680C
:1037900000B24B49088044480068001D4249086057
:1037A00008460068006800B2454948803E48006805
:1037B000001D3D49086008460068006800B24049A5
:1037C000888039480068001D37490860084600684D
:1037D000006800B23B49088033480068001D324948
:1037E000086008460068006800B2364948802E48E4
:1037F0000068001D2C49086008460068006800B297
:103800003049888028480068001D2749086008461C
:103810000068006800B22C49088023480068001D39
:103820002149086008460068006800B226494880BF
:103830001D480068001D1C490860084600680068B3
:1038400000B22149888018480068001D16490860A8
:1038500009680868FCF7D8FD04461C49FCF722FDFE
:103860001B49086010480068001D0F49086009687E
:103870000868FCF7C9FD04461449FCF713FD154917
:10388000086009480068001D074908600968086861
:10389000FCF7BAFD04460D49FCF704FD0E4908602B
:1038A00010BD0000009001081C0000203000002026
:1038B000360000203C00002042000020480000208C
:1038C0004E000020540000205A0000200000C84292
:1038D0002C000020240000202800002001200F4997
:1038E00008700020488001200D49087000204880A1
:1038F00001200C4908700020488001200A49087006
:1039000000204880012009490870002048800120DB
:103910000749087000204880704700009000002090
:10392000940000209C00002098000020A0000020AF
:10393000A400002010B53048007860B92E484088B7
:10394000401E80B22C494880002804DC0120087009
:103950002A48FFF7B1F82A48007860B9284840881B
:10396000401E80B226494880002804DC01200870EF
:103970002448FFF7A1F82448007860B9224840881D
:10398000401E80B220494880002804DC01200870D5
:103990001E48FFF791F81E48007860B91C4840881F
:1039A000401E80B21A494880002804DC01200870BB
:1039B0001848FFF781F81848007860B91648408821
:1039C000401E80B214494880002804DC01200870A1
:1039D0001248FFF771F81248007860B91048408823
:1039E000401E80B20E494880002804DC0120087087
:1039F0000C48FFF761F810BD900000206000002027
:103A000094000020680000209C000020700000202E
:103A10009800002078000020A000002080000020F6
:103A2000A40000208800002041800022027070471E
:103A300070B5FDF733F80020DC490860DC48886089
:103A40000120C860DB49D948FCF76CFF00B170BDAC
:103A5000D748D9490860D948B0F900402246002328
:103A6000084601680220FCF7BFFFD3480068001D2C
:103A7000D1490860D148B0F90240224600230846E7
:103A800001680220FCF7B0FFCB480068001DCA495E
:103A90000860CA48B0F9044022460023084601687D
:103AA0000220FCF7A1FFC4480068001DC24908605D
:103AB000C348B0F9004022460023084601680220AE
:103AC000FCF792FFBC480068001DBB490860BC4879
:103AD000B0F9024022460023084601680220FCF7A4
:103AE00083FFB5480068001DB3490860B448B0F9C9
:103AF000044022460023084601680220FCF774FFB8
:103B0000AD480068001DAC490860AE48B0F90040FF
:103B100022460023084601680220FCF765FFA648FC
:103B20000068001DA4490860A648B0F9024022467A
:103B30000023084601680220FCF756FF9E480068F3
:103B4000001D9D4908609F48B0F9044022460023AB
:103B5000084601680220FCF747FF97480068001DEF
:103B6000954908609848B0F900402246002308466D
:103B700001680220FCF738FF8F480068001D8E495D
:103B800008609148B0F902402246002308460168C7
:103B90000220FCF729FF88480068001D864908605C
:103BA0008948B0F9044022460023084601680220F3
:103BB000FCF71AFF80480068001D7F4908608348B1
:103BC000B0F9004022460023084601680220FCF7B5
:103BD0000BFF79480068001D774908607B48B0F901
:103BE000024022460023084601680220FCF7FCFE42
:103BF00071480068001D704908607448B0F90440BD
:103C000022460023084601680220FCF7EDFE6A48C0
:103C10000068001D684908606D48B0F90040224600
:103C20000023084601680220FCF7DEFE62480068B7
:103C3000001D614908606648B0F902402246002331
:103C4000084601680220FCF7CFFE5B480068001DB3
:103C5000594908605E48B0F90440224600230846EE
:103C600001680220FCF7C0FE53480068001D52495D
:103C700008605848B0F90040224600230846016811
:103C80000220FCF7B1FE4C480068001D4A4908605C
:103C90005048B0F90240224600230846016802203D
:103CA000FCF7A2FE44480068001D434908604948EB
:103CB000B0F9044022460023084601680220FCF7C0
:103CC00093FE3D480068001D3B4908604248B0F93A
:103CD000004022460023084601680220FCF784FECB
:103CE00035480068001D344908603B48B0F902407F
:103CF00022460023084601680220FCF775FE2E4884
:103D00000068001D2C4908603348B0F90440224681
:103D10000023084601680220FCF766FE264800687A
:103D2000001D254908602D492D480068FCF784FADC
:103D30000646FCF76EFB0023044622461E48016837
:103D40000220FCF751FE1C480068001D1A4908605B
:103D5000224924480068FCF76FFA0646FCF759FB35
:103D6000002304462246144801680220FCF73CFE6A
:103D700011480068001D1049086018491A48006879
:103D8000FCF75AFA0646FCF744FB00230446224699
:103D9000094801680220FCF727FE07480068001D5B
:103DA00005490860FCF716FE00BF50E6C800002079
:103DB00000900108200000201C000020300000209E
:103DC000360000203C000020420000204800002077
:103DD0004E000020540000205A0000200000C8427D
:103DE0002C000020240000202800002000000000FB
:103DF00001020304010203040607080941A042A1CD
:103E0000E045A3A4A5A64BA74D484FA8504354A9ED
:103E1000AA58E1ABACE2ADAEADAFB0B161B2B3B4F4
:103E2000E365B6B7B8B9BABBBCBD6FBE7063BF7946
:103E3000E478E5C0C1E6C2C3C4C5C6C7000000003F
:103E40000000000000000000000000000000000072
:103E5000604200086C3E00083C3E00083C3E000802
:103E60003C3E000803000000404200083C3E0008C1
:103E7000543E00083C3E0008843E0008000100005B
:103E8000D8410008B43E00083C3E00086C3E0008E3
:103E90009C3E000800000000534200083C3E000821
:103EA0003C3E0008843E00083C3E00080200000042
:103EB00053420008E43E0008843E00086C3E0008BF
:103EC000CC3E000800010000A54100083C3E00086F
:103ED0003C3E0008B43E00083C3E000802000000E2
:103EE000A5410008143F0008B43E00086C3E0008DD
:103EF000FC3E0008000200007B4100083C3E000838
:103F00003C3E0008E43E00083C3E00080200000081
:103F10007B410008443F0008E43E00086C3E000876
:103F20002C3F000800030000BE4100083C3E000892
:103F30003C3E0008143F00083C3E00080200000020
:103F4000BE410008743F0008143F00086C3E0008A2
:103F50005C3F0008000400006C4100083C3E000883
:103F60003C3E0008443F00083C3E000802000000C0
:103F7000A5410008A43F0008443F00086C3E00082B
:103F80008C3F000800050000954100083C3E0008F9
:103F90003C3E0008743F00083C3E00080200000060
:103FA00095410008D43F0008743F00086C3E0008AB
:103FB000BC3F000800060000FC4100083C3E000831
:103FC0003C3E0008A43F00083C3E00080200000000
:103FD000FC41000804400008A43F00086C3E0008B3
:103FE000EC3F000800070000EF4100083C3E0008DD
:103FF0003C3E0008D43F00083C3E000802000000A0
:104000000A42000834400008D43F00086C3E000813
:104010001C40000800080000174200083C3E000851
:104020003C3E0008044000083C3E0008020000003E
:10403000174200083C3E0008044000086C3E00089F
:104040004C40000800090000894100087C4000083D
:104050003C3E0008344000086440000800000000B6
:10406000274200083C3E00083C3E00084C40000847
:104070003C3E00080100000027420008AC40000858
:104080004C40000834400008944000080001000043
:10409000E24100083C3E00083C3E00087C4000082D
:1040A0003C3E000801000000E2410008DC4000083E
:1040B0007C40000834400008C440000800020000B2
:1040C0003C4200083C3E00083C3E0008AC40000872
:1040D0003C3E0008010000003C4200080C41000882
:1040E000AC40000834400008F44000080003000021
:1040F000334200083C3E00083C3E0008DC4000081B
:104100003C3E000801000000334200083C4100082A
:10411000DC4000083440000824410008000400008E
:10412000CA4100083C3E00083C3E00080C41000823
:104130003C3E000801000000CA4100083C3E000867
:104140000C410008344000085441000800050000FC
:10415000B24100083C3E00083C3E00083C410008DB
:104160003C3E000801000000B2410008D2EEEF2DF5
:10417000E2EE20F0EEE7E6E8E3E000C2F0E5ECFF77
:1041800020F0EEE7E6E8E3E000C4E8E0E3EDEEF17E
:10419000F2E8EAE000C7E0EFEEEB2DEDE8E520F80D
:1041A000EDFDEAE000D2E5EC2DF0E020EAEEF2EBE6
:1041B000E000CDE0F1EEF120EAEEF2EBE000D0E03D
:1041C000E1EEF2E020F2FDEDE000CDE0F1EEF120D5
:1041D000E1EEE9EBE5F0E000CDE0F1F2F0EEE9EA46
:1041E000E800D8EDE5EA20E3EEF0E5EBEAE800C20E
:1041F000F0E5ECFF20F7E8F2F1EAE800CFE5F0E8BF
:10420000EEE420F7E8F1F2EAE800C2F0E5ECFF2086
:10421000F7E8F1F2EAE800DFF0EAEEF1F2FC20EF75
:10422000EBE0ECE5EDE800D8EDE5EA20EFEEE4E0C8
:10423000F7E800CAEEEBEEF1EDE8EA00D2FDED00A2
:10424000D1F2E0F0F200C3EBE0E2EDEEE520ECE5C8
:10425000EDFE00D0E5E6E8EC20E3EEF0E5EDE8FF6A
:10426000000000008442000800000020A8000000B8
:104270008A2700082C430008A800002070040000D2
:104280009A27000800A24A04000000000000000075
:10429000464200080000000000000000000000008E
:1042A000000000000000000000000000000000000E
:1042B00000000000000000000000000000000000FE
:1042C00000000000000000000000000000000000EE
:1042D00000000000000000000000000000000000DE
:1042E00000000000000000000000000000000000CE
:1042F00000000000000000000000000000000000BE
:1043000000000000000000000000000000000000AD
:10431000000000000000000000000000000000009D
:0C43200000000000000000000000000091
:0400000508000131BD
:00000001FF
