:020000040800F2
:10000000C0040020450100084D0100084F01000810
:1000100051010008530100085501000800000000CC
:100020000000000000000000000000005701000870
:1000300059010008000000005B010008CD21000804
:100040005F0100085F0100085F0100085F01000810
:100050005F0100085F0100085F0100085F01000800
:100060005F0100085F0100085F0100085F010008F0
:100070005F0100085F0100085F0100085F010008E0
:100080005F0100085F0100085F0100085F010008D0
:100090005F0100085F0100085F010008AF0700086A
:1000A0005F0100085F0100085F0100085F010008B0
:1000B0005F0100085F0100085F0100085F010008A0
:1000C0005F0100085F0100085F0100085F01000890
:1000D0005F0100085F0100085F0100085F01000880
:1000E0009B0700085F0100085F0100085F0100082E
:1000F0005F0100085F0100085F0100085F01000860
:100100005F0100085F0100085F0100085F0100084F
:100110005F0100085F0100085F0100085F0100083F
:100120005F0100085F0100085F0100085F0100082F
:10013000DFF80CD000F0FEFA00480047F92C000868
:10014000C00400200648804706480047FEE7FEE757
:10015000FEE7FEE7FEE7FEE7FEE7FEE7FEE7FEE777
:100160004122000831010008202A04DB203A21FA4C
:1001700002F00021704721FA02F3D040C2F12002C0
:100180009140084319467047F0B480EA0102D40F49
:100190004200B2EB410F02D20246084611464A0025
:1001A00042D0C30DDDB2C1F3C752AD1A202D35DAEE
:1001B000C1F3160141F4000204B15242C5F1200618
:1001C00002FA06F12A411044B3EBD05F23D0C4B148
:1001D000012DA0EBC35009DCF0BC4FF0004202EA55
:1001E000C35200F50000DBB200F071B9400000F12D
:1001F000807000EBC350A0F1807040EAD1704900DC
:1002000009E0490841EAC071A0EBC35000F50000C5
:10021000400800EBC350F0BC00F050B9614201222D
:1002200002EB4101001BF6E7F0BC704781F0004192
:10023000AAE780F00040A7E780EA010210B502F0CB
:100240000043400026D04A0023D04FEA106101EB62
:100250001261C0F35600C2F3560240F4000042F4AB
:100260000002A0FB0220A1F17F014FEA004014042C
:1002700001D000F1010050EA124001D44000491EB3
:10028000C2B20C0604EBD010401C4008802A02D0F9
:1002900003E0002010BD20F00100002900DA00205A
:1002A000184310BD30B480EA010202F0004530F07E
:1002B000004221F0004015D0A0B1C0F3C753C2F3F3
:1002C000C754C2F31601C0F31600E41A41F400014A
:1002D00040F400027D34914201D3641C00E04900E7
:1002E000002C02DA30BC002070474FF400000023DD
:1002F000914201D3891A034340084FEA4101F7D1E3
:1003000051B1914202D14FF0004105E002D24FF0CD
:10031000010101E06FF0010103EBC450284430BC3F
:1003200000F0CCB82DE9FE4F81EA030404F000444C
:1003300021F0004100944FF0000B23F0004350EAFD
:10034000010402D052EA030404D10020014603B0A4
:10035000BDE8F08FC3F30A54C1F30A552C44A4F24C
:10036000F3340194A0FB0254C1F3130141F4801152
:10037000C3F3130343F4801301FB024400FB034E59
:10038000840A970A44EA815447EA8357A4FB076822
:1003900002958D0A05FB07854FEA932C04FB0C544C
:1003A0002705029D4FEA065847EA1637B5EB0805C0
:1003B0006EEB070C870E920E47EA811742EA831212
:1003C000A7FB0201B6EB0B0164EB00042B0D43EA23
:1003D0000C335E1844EB1C50DA465146E7FB020131
:1003E000C5F313044FEA0B3343EA14534FEA0432C4
:1003F000019C43EA0603A4F10C040294009CCDE99D
:1004000000B400F09EF8A2E796230022114600F007
:100410005EB820F00040C10DC0F3160040F40000AB
:100420007F2901DA00207047962903DCC1F196018B
:10043000C8407047963988407047C1F30A5210B5DA
:10044000C1F3130140F2FF3341F480119A4201DA03
:10045000002010BD40F233439A42A2F2334203DC43
:100460005242FFF781FE10BD904010BD00F00042E7
:1004700030F000400AD0C10D01F56071C0F31600E4
:1004800042EA0151C208400711437047002001466B
:1004900070470000002801DBC0F10040002901DBAB
:1004A000C1F1004181427047002801DBC0F10040EA
:1004B000002901DBC1F10041884270470029A8BF33
:1004C0007047401C490008BF20F00100704710B47D
:1004D000B0FA80FC00FA0CF050EA010404BF10BC32
:1004E000704749B1CCF1200421FA04F411FA0CF15F
:1004F00018BF012121430843A3EB0C01CB1D0106CA
:10050000000A002BBEBF002010BC704700EBC35098
:1005100010440029A4BF10BC7047401C490008BF0C
:1005200020F0010010BC704710B5002B08DA401C09
:1005300041F1000192185B411A4301D120F0010002
:1005400010BD2DE9F04D92469B4611B1B1FA81F2F2
:1005500002E0B0FA80F22032904600F0FDF8044646
:100560000F4640EA0A0041EA0B0153465A46084347
:1005700003D120463946BDE8F08D114653EA01000B
:1005800015D0C8F140025046FFF7EEFD05460E4675
:1005900050465946424600F0DFF8084301D001209A
:1005A00000E00020054346EAE0762C4337430A98F2
:1005B0004FEA4453A0EB08004FEAD4240A304FF02E
:1005C000000244EA47544FEAD72502D500200146ED
:1005D000D1E7010510196941DDE9084500196941B4
:1005E000BDE8F04DA0E72DE9FE4F804681EA03000B
:1005F000C00F0C46009021F0004123F00045B8EBFD
:100600000200A94105D24046214690461C460B46B1
:10061000024623F00040104304D14046214603B077
:10062000BDE8F08F270DC7F30A00C3F30A5102900B
:10063000401A0190402866DAC3F3130040F4801B8F
:100640000098924620B10023D2EB030A63EB0B0B18
:1006500001985946C0F14002504600F07DF8064628
:100660000D4650465946019A00F085F810EB0800F7
:100670006141002487EA115284EAE7731A433BD0B0
:10068000009A3AB3019A012A4FEA075210DC001B84
:1006900061EB02014FF0004202EA0752CDE900424D
:1006A000001C41F5801132462B46FFF74AFFB6E7A2
:1006B000001B61EB0201001C41F5801300185B4137
:1006C0002018A2F5001747EB030140EAD570B619D0
:1006D0006D4111E06D084FEA360645EAC0754FEAF4
:1006E0000752001B61EB0201001C41F58011490813
:1006F0004FEA30000019514132462B4603B0BDE8A5
:10070000F04FFFF711BF0098012240000023D0EB0B
:10071000020263EBE073009821464FEAE074B8EB05
:10072000000061EB0401E9E783F000435BE781F03F
:10073000004158E7064C074D06E0E06840F0010331
:1007400094E8070098471034AC42F6D3FFF7F4FC66
:10075000843A0008A43A0008202A04DB203A00FA70
:1007600002F1002070479140C2F1200320FA03F308
:10077000194390407047202A06DBCB17203A41FAF4
:1007800002F043EAE07306E041FA02F3D040C2F11E
:100790002002914008431946704710B54FF400609D
:1007A00000F0C2F94FF4805000F0BEF910BD10B552
:1007B000202000F0B9F9402000F0B6F9802000F0C8
:1007C000B3F910BD0021074AD1610749096941F019
:1007D0000401054A11611146096941F040011161A6
:1007E0007047000090000020002002400021074ACE
:1007F000D1610749096941F00201054A11611146B9
:100800004861096941F04001116170479000002082
:10081000002002400022054BDA61054A126942F0CD
:100820000102034B1A610180704700009000002014
:10083000002002401748C06810F0100F05D016487D
:10084000C06940F002001449C8611248C06810F045
:10085000040F05D01048C06940F001000E49C8617E
:100860000C48C06910F0010F0DD00B48C06940F072
:1008700004000949C86100BF0648C06920F00100B2
:100880000449C86100BF00BF14200249C86000BF0E
:1008900070470000002002409000002070B5044620
:1008A00000F0F4FA054609E0601C07D024B100F01E
:1008B000EDFA401BA04201D9032070BD1148C06869
:1008C00010F0010FF0D10F48C06810F0200F04D0D5
:1008D00000BF20200B49C86000BF0A48C06810F064
:1008E000100F09D10748C06810F0040F04D1054863
:1008F000C06910F0010F03D0FFF79CFF0120DCE777
:100900000020DAE70020024031B5002400F0BEFAF2
:10091000044600BF00F0BAFA001B00998842F9D3E0
:1009200038BD00002DE9F04104460E4601270025A0
:1009300000BF2648007E012802D10220BDE8F081D8
:1009400001202249087600BF2068022813D14CF20A
:100950005030FFF7A3FF90BB0120FFF733FF4CF2AD
:100960005030FFF79BFF07461948006920F004004C
:100970001749086123E04CF25030FFF78FFFF0B9C0
:100980004FF0FF303060A56812E02846FFF72EFFD9
:100990004CF25030FFF782FF07460D48006920F007
:1009A00002000B4908610FB1356007E005F50065ED
:1009B000D4E9021001EBC020A842E6D800BF00BF76
:1009C00000200249087600BF3846B7E790000020B3
:1009D000002002400348006940F08000014908619E
:1009E00000207047002002402DE9FE4F05468B464F
:1009F000174698464FF001064FF00004204602903B
:100A000000BF2448007E012802D10220BDE8FE8FED
:100A100001202049087600BF4CF25030FFF73EFF1E
:100A2000064686BB012D02D10120029006E0022D70
:100A300002D10220029001E00420029000241EE076
:100A40002201B946C24648465146FFF78DFB80B2A7
:100A50000190022000FB04B000900199FFF7DAFE3C
:100A60004CF25030FFF71AFF06460B48006920F0A1
:100A700001000949086106B104E0601CC4B2029893
:100A80008442DDDB00BF00BF00200249087600BFC2
:100A90003046BBE790000020002002400748006974
:100AA00010F0800F05D006480449486005484860AA
:100AB00001E0012070470020FCE700000020024018
:100AC00023016745AB89EFCD10B50446202C05D135
:100AD00002F0BEF93220FFF717FF20E0402C05D1CD
:100AE00002F0EAF93220FFF70FFF18E0802C05D161
:100AF00002F062F93220FFF707FF10E0B4F5006F53
:100B000005D102F0D9F93220FFF7FEFE07E0B4F577
:100B1000805F04D102F004FA3220FFF7F5FE0148AD
:100B2000046010BD1404014010B504460348006879
:100B3000204202D02046FFF7C7FF10BD1404014039
:100B40002DE9F847024600240020002584460027AE
:100B500000237BE14FF0010808FA03F4D1F800808C
:100B600008EA0400A0427DD1DFF8ECA2D1F80480AD
:100B7000A8EB0A09D0453AD014DCB8F1030F50D0E5
:100B800009DCB8F1000F31D0B8F1010F1CD0B8F179
:100B9000020F49D120E0B8F1110F18D0B8F1120FAF
:100BA00042D11EE0B9F5881F25D006DCB9F5803F9B
:100BB00020D0B9F5801F37D11AE0B9F5001F18D041
:100BC000B9F5041F30D117E0D1F80CC02DE0D1F8F1
:100BD0000C8008F1040C28E0D1F80C8008F1080C16
:100BE00023E0D1F80C8008F10C0C1EE000BF00BF20
:100BF00000BF00BF00BF00BFD1F80880B8F1000FF0
:100C000002D14FF0040C0BE0D1F80880B8F1010FCD
:100C100003D14FF0080C146102E04FF0080C54614E
:100C200003E04FF0000C00E000BF00BFFF2801D838
:100C3000904601E002F104084646FF2802D84FEA38
:100C4000830803E0A3F108084FEA88084746D6F86E
:100C500000804FF00F0909FA07F928EA09080CFA91
:100C600007F900E07AE048EA0908C6F80080D1F800
:100C7000048008F08058B8F1805F6FD100BFDFF8C2
:100C8000DC81D8F8188048F00108DFF8D091C9F865
:100C90001880C846D8F8188008F00108CDF8008000
:100CA00000BF00BF4FEAB9384FEA930958F82950FE
:100CB0004FEA83784FEA18794FF00F0808FA09F8DD
:100CC00025EA0805DFF89881424502D14FF0000877
:100CD00024E0DFF89081424502D14FF001081DE089
:100CE000DFF88481424502D14FF0020816E0DFF8B8
:100CF0007C81424502D14FF003080FE0DFF870819C
:100D0000424502D14FF0040808E0DFF8688142450F
:100D100002D14FF0050801E04FF006084FEA837951
:100D20004FEA197908FA09F848EA0505DFF8488119
:100D30004FEA930948F82950D1F8048008F4803824
:100D4000B8F5803F0BD1DFF83481D8F8008048EA4D
:100D50000008DFF82891C9F800800AE075E0DFF8A4
:100D60001C81D8F8008028EA0008DFF81091C9F843
:100D70000080D1F8048008F40038B8F5003F0ED1A7
:100D8000DFF8F88008F10408D8F8008048EA000885
:100D9000DFF8E89009F10409C9F800800DE0DFF8F8
:100DA000DC8008F10408D8F8008028EA0008DFF8A1
:100DB000CC9009F10409C9F80080D1F8048008F446
:100DC0008018B8F5801F0ED1DFF8B08008F1080850
:100DD000D8F8008048EA0008DFF8A09009F1080977
:100DE000C9F800800DE0DFF8948008F10808D8F811
:100DF000008028EA0008DFF8849009F10809C9F8A2
:100E00000080D1F8048008F40018B8F5001F0ED156
:100E1000DFF8688008F10C08D8F8008048EA00087C
:100E2000DFF8589009F10C09C9F800800DE0DFF8EF
:100E30004C8008F10C08D8F8008028EA0008DFF898
:100E40003C9009F10C09C9F800805B1C102BFFF4E1
:100E500081AEBDE8F88700000000111000100240CC
:100E600000080140000C0140001001400014014046
:100E700000180140001C014008000140000401402E
:100E80000AB1016101E00B04036170470148006889
:100E9000704700000400002002480068401C01491F
:100EA000086070470400002010B50848006840F052
:100EB000100006490860032000F07CF8002000F0D4
:100EC00007F800F017F8002010BD000000200240D5
:100ED00070B5044600F096FA4FF47A71B0FBF1F564
:100EE000284600F0BEFF00222146501E00F024F8E4
:100EF000002070BD10B5032000F05CF80022114600
:100F0000501E00F019F80448406820F0E06040F0FE
:100F100080600149486010BD0000014000BF00F042
:100F20001F020121914042094FF0E02303EB8202AE
:100F3000C2F8001100BF70472DE9F05F80460D46F2
:100F40001646002701F026F9074639462A46334659
:100F500001F00700C0F1070ABAF1040F02D94FF0FF
:100F6000040A01E0C0F1070AD14600F1040ABAF10F
:100F7000070F02D24FF0000A01E0A0F1030AD446A5
:100F80004FF0010A0AFA09FAAAF1010A0AEA020A6A
:100F90000AFA0CFA4FF0010B0BFA0CFBABF1010B48
:100FA0000BEA030B4AEA0B042146404601F0FAF82B
:100FB000BDE8F09F00BF00F00702064B19684FF62E
:100FC000FF031940044B0B4343EA0221014B196014
:100FD00000BF70470CED00E00000FA0570B5044654
:100FE0000D460026FE48006800F00700A8426ED2B9
:100FF000FB48006820F007002843F94908600846CC
:10100000006800F00700A84201D0012070BD2078E0
:1010100000F00200022807D1F248406820F0F000FA
:10102000A1680843EF494860207810F0010F6ED0A6
:10103000606801282CD12020010391FAA1F1B1FAB6
:1010400081F108430121B1EB601F02D1E54800683E
:101050000FE02020010391FAA1F1B1FA81F10843D8
:101060000221B1EB601F02D1DE48006A01E0DD48D9
:10107000406A20210A0392FAA2F2B2FA82F21143E4
:1010800001F01F0201219140084260D10120BDE71B
:10109000606802282DD12020010591FAA1F1B1FA52
:1010A00081F108430121B1EB601F02D1CD480068F6
:1010B00010E02020010591FAA1F1B1FA81F1084375
:1010C0000221B1EB601F03D1C648006A02E081E053
:1010D000C448406A20210A0592FAA2F2B2FA82F2CA
:1010E000114301F01F020121914008422FD101203C
:1010F0008CE72020022191FAA1F1B1FA81F1084395
:101100000121B1EB601F03D1B648006810E051E146
:101110002020022191FAA1F1B1FA81F108430221C4
:10112000B1EB601F02D1AF48006A01E0AD48406AF0
:101130002021022292FAA2F2B2FA82F2114301F0C5
:101140001F0201219140084201D101205EE7A5481C
:10115000406820F0030061680843A2494860FFF737
:1011600095FE06466068012810D108E0FFF78EFE64
:10117000801B41F28831884201D9032046E7994813
:10118000406800F00C000428F0D113E160680228E8
:1011900010D108E0FFF77AFE801B41F288318842C7
:1011A00001D9032032E78F48406800F00C0008287E
:1011B000F0D1FFE008E0FFF769FE801B41F28831C3
:1011C000884201D9032021E78648406810F00C0FBF
:1011D000F1D1EFE0207800F00200022807D1814829
:1011E000406820F0F000A16808437E4948602078FC
:1011F00010F0010F7BD0606801282CD12020010362
:1012000091FAA1F1B1FA81F108430121B1EB601F1C
:1012100002D1744800680FE02020010391FAA1F187
:10122000B1FA81F108430221B1EB601F02D16D4890
:10123000006A01E06B48406A20210A0392FAA2F298
:10124000B2FA82F2114301F01F02012191400842DB
:101250005FD10120DAE6606802282CD12020010548
:1012600091FAA1F1B1FA81F108430121B1EB601FBC
:1012700002D15C4800680FE02020010591FAA1F13D
:10128000B1FA81F108430221B1EB601F02D1554848
:10129000006A01E05348406A20210A0592FAA2F24E
:1012A000B2FA82F2114301F01F020121914008427B
:1012B0002FD10120AAE62020022191FAA1F1B1FA52
:1012C00081F108430121B1EB601F02D1454800685C
:1012D00010E02020022191FAA1F1B1FA81F1084336
:1012E0000221B1EB601F03D13E48006A02E052E0E8
:1012F0003C48406A2021022292FAA2F2B2FA82F21B
:10130000114301F01F0201219140084201D1012047
:101310007CE63448406820F00300616808433149A6
:101320004860FFF7B3FD06466068012810D108E069
:10133000FFF7ACFD801B41F28831884201D90320C0
:1013400064E62848406800F00C000428F0D122E050
:101350006068022810D108E0FFF798FD801B41F279
:101360008831884201D9032050E61E48406800F0C9
:101370000C000828F0D10EE008E0FFF787FD801B85
:1013800041F28831884201D903203FE61548406880
:1013900010F00C0FF1D11248006820F0070028432C
:1013A0000F4908600846006800F00700A84201D015
:1013B00001202BE6207800F00400042807D109481A
:1013C000406820F4E060E1680843064948602078FE
:1013D00000F0080008280ED10248406804E0000030
:1013E000002002400010024020F46050216940EAD1
:1013F000C100034948600020FFF76AFD002005E6B0
:101400000010024000B500F019F80949496801F0E0
:10141000F001F02292FAA2F2B2FA82F2D140054A29
:10142000515CC840044908600846006800BD0000DF
:10143000001002400C36000800000020F0B585B016
:101440000FF28C0C9CE8E01001A8A0E8E01024A5A5
:101450002D68009500210024002200230020214D4A
:10146000696811F00C052DD0042D02D0082D28D16B
:1014700001E01D4828E001F470154FF4701696FA4B
:10148000A6F6B6FA86F6F54001AE735D11F4803F1C
:1014900012D0144D6D6805F400354FF4003696FAFD
:1014A000A6F6B6FA86F6F5401DF805400E4DB5FBDA
:1014B000F4F505FB03F202E00C4D03FB05F21046C8
:1014C00002E000BF084800BF00BF05B0F0BD00004B
:1014D00002030405060708090A0B0C0D0E0F101075
:1014E000010200000010024000127A0000093D00D5
:1014F00038B504460025207810F0010F78D0FC485C
:10150000406800F00C0004280CD0F948406800F056
:101510000C00082836D1F648406800F48030B0F559
:10152000803F2FD12020010391FAA1F1B1FA81F17E
:1015300008430121B1EB601F02D1ED4800680FE0C4
:101540002020010391FAA1F1B1FA81F108430221AF
:10155000B1EB601F02D1E648006A01E0E448406A4E
:1015600020210A0392FAA2F2B2FA82F2114301F0A8
:101570001F02012191400842C0D06068002837D185
:10158000012038BD00BFDA48006820F48030D84917
:1015900008600846006820F48020086000BFFFF75C
:1015A00075FC054608E0FFF771FC401B41F28831ED
:1015B000884201D90320E4E72020010391FAA1F138
:1015C000B1FA81F108430121B1EB601F02D1C84893
:1015D000006810E02020010391FAA1F1B1FA81F135
:1015E00008430221B1EB601F03D1C148006A02E049
:1015F000B8E0BF48406A20210A0392FAA2F2B2FA88
:1016000082F2114301F01F02012191400842CAD128
:1016100000BF6068B0F5803F06D1B548006840F46F
:101620008030B349086028E0606858B9B048006865
:1016300020F48030AE4908600846006820F480201D
:1016400008601AE06068B0F5A02F0BD1A8480068C8
:1016500040F48020A64908600846006840F48030C5
:1016600008600AE0A248006820F48030A0490860C1
:101670000846006820F48020086000BF6068C0B39E
:10168000FFF704FC054608E0FFF700FC401B41F2B1
:101690008831884201D9032073E72020010391FAA1
:1016A000A1F1B1FA81F108430121B1EB601F02D130
:1016B0008F4800680FE02020010391FAA1F1B1FAF0
:1016C00081F108430221B1EB601F02D18848006A12
:1016D00001E08748406A20210A0392FAA2F2B2FA96
:1016E00082F2114301F01F02012191400842CBD048
:1016F00038E0FFE7FFF7CAFB054608E0FFF7C6FB47
:10170000401B41F28831884201D9032039E720206B
:10171000010391FAA1F1B1FA81F108430121B1EB82
:10172000601F02D1724800680FE02020010391FA87
:10173000A1F1B1FA81F108430221B1EB601F02D19E
:101740006B48006A01E06A48406A20210A0392FA65
:10175000A2F2B2FA82F2114301F01F02012191407C
:101760000842CBD1207800F0020002284DD1604819
:10177000406810F00C0F0AD05D48406800F00C0083
:10178000082843D15A48406810F4803F3ED12020B9
:10179000022191FAA1F1B1FA81F108430121B1EBE3
:1017A000601F02D1524800680FE02020022191FA08
:1017B000A1F1B1FA81F108430221B1EB601F02D11E
:1017C0004B48006A01E04A48406A2021022292FA0E
:1017D000A2F2B2FA82F2114301F01F0201219140FC
:1017E000084204D02069012801D00120C9E6404800
:1017F000006820F0F800F82292FAA2F2B2FA82F21F
:101800006169914008433A49086092E0206970B3E9
:10181000012191FAA1F0B0FA80F0364A42F8201086
:10182000FFF734FB054606E0FFF730FB401B64285A
:1018300001D90320A5E62020022191FAA1F1B1FAF5
:1018400081F108430121B1EB601F02D128480068F3
:1018500010E02020022191FAA1F1B1FA81F10843B0
:101860000221B1EB601F03D12148006A02E01DE0B4
:101870001F48406A2021022292FAA2F2B2FA82F2B2
:10188000114301F01F02012191400842CCD01848B9
:10189000006820F0F800F82292FAA2F2B2FA82F27E
:1018A0006169914008431249086042E0002101202B
:1018B00090FAA0F0B0FA80F00E4A42F82010FFF73C
:1018C000E5FA054606E0FFF7E1FA401B642801D976
:1018D000032056E62020022191FAA1F1B1FA81F10C
:1018E00008430121B1EB601F06D10148006813E0F5
:1018F00000100240000042422020022191FAA1F192
:10190000B1FA81F108430221B1EB601F02D1F7481F
:10191000006A01E0F548406A2021022292FAA2F210
:10192000B2FA82F2114301F01F02012191400842F4
:10193000C9D1207800F00800082843D1A06970B30D
:10194000012191FAA1F0B0FA80F0E94A42F82010A2
:10195000FFF79CFA054606E0FFF798FA401B64285B
:1019600001D903200DE66020022191FAA1F1B1FA1C
:1019700081F108430121B1EB601F02D1DB4800680F
:1019800010E06020022191FAA1F1B1FA81F108433F
:101990000221B1EB601F03D1D448006A02E012E0DB
:1019A000D248406A6021022292FAA2F2B2FA82F28E
:1019B000114301F01F02012191400842CCD00120C7
:1019C000FEF7A2FF3EE00021012090FAA0F0B0FA5D
:1019D00080F0C74A42F82010FFF758FA054606E0A3
:1019E000FFF754FA401B642801D90320C9E56020A1
:1019F000022191FAA1F1B1FA81F108430121B1EB81
:101A0000601F02D1B94800680FE06020022191FAFE
:101A1000A1F1B1FA81F108430221B1EB601F02D1BB
:101A2000B248006A01E0B148406A6021022292FA9D
:101A3000A2F2B2FA82F2114301F01F020121914099
:101A40000842CDD1207800F00400042873D100BFF3
:101A5000A648C06940F08050A449C8610846C069E2
:101A600000F08050009000BF00BFA248006840F422
:101A70008070A0490860FFF709FA054606E0FFF705
:101A800005FA401B642801D903207AE599480068CB
:101A900010F4807FF3D000BF9448006A20F001006A
:101AA000924908620846006A20F00400086200BFFC
:101AB000FFF7ECF9054608E0FFF7E8F9401B41F2B3
:101AC0008831884201D903205BE54020022191FA48
:101AD000A1F1B1FA81F108430121B1EB601F02D1FC
:101AE000824800680FE04020022191FAA1F1B1FA8A
:101AF00081F108430221B1EB601F02D17B48006AEB
:101B000001E07A48406A4021022292FAA2F2B2FA37
:101B100082F2114301F01F02012191400842CBD112
:101B200000BFE068012807D17048006A40F001005A
:101B30006E49086228E09CE0E06858B96B48006A8A
:101B400020F00100694908620846006A20F004009C
:101B5000086219E0E06805280BD16448006A40F08B
:101B60000400624908620846006A40F00100086209
:101B70000AE05E48006A20F001005C4908620846FD
:101B8000006A20F00400086200BFE068C0B3FFF7FD
:101B90007DF9054608E0FFF779F9401B41F28831ED
:101BA000884201D90320ECE44020022191FAA1F1FE
:101BB000B1FA81F108430121B1EB601F02D14B481A
:101BC00000680FE04020022191FAA1F1B1FA81F101
:101BD00008430221B1EB601F02D14448006A01E0D2
:101BE0004248406A4021022292FAA2F2B2FA82F2FC
:101BF000114301F01F02012191400842CBD038E08F
:101C0000FFE7FFF743F9054608E0FFF73FF9401B00
:101C100041F28831884201D90320B2E440200221F8
:101C200091FAA1F1B1FA81F108430121B1EB601FF2
:101C300002D12E4800680FE04020022191FAA1F164
:101C4000B1FA81F108430221B1EB601F02D12748AC
:101C5000006A01E02548406A4021022292FAA2F27D
:101C6000B2FA82F2114301F01F02012191400842B1
:101C7000CBD1E069002873D01C48406800F00C000C
:101C800008286ED0E06902286CD10021C00590FAC6
:101C9000A0F0B0FA80F0184A42F82010FFF7F6F8EA
:101CA000054606E0FFF7F2F8401B642801D903203F
:101CB00067E42020010591FAA1F1B1FA81F108430E
:101CC0000121B1EB601F02D10848006818E0202014
:101CD000010591FAA1F1B1FA81F108430221B1EBBA
:101CE000601F0BD10148006A0AE0000000100240AA
:101CF0008004424200700040000042425648406A60
:101D000020210A0592FAA2F2B2FA82F2114301F0FE
:101D10001F02012191400842C4D1206AB0F5803FE2
:101D200007D14D48406820F40030A16808434A4973
:101D30004860D4E9080108434749496821F474110F
:101D40000843454948600121080690FAA0F0B0FA1E
:101D500080F0424A42F82010FFF798F8054609E063
:101D600077E074E032E0FFF791F8401B642801D976
:101D7000032006E42020010591FAA1F1B1FA81F1D6
:101D800008430121B1EB601F02D1334800680FE026
:101D90002020010591FAA1F1B1FA81F10843022155
:101DA000B1EB601F02D12C48006A01E02A48406A6A
:101DB00020210A0592FAA2F2B2FA82F2114301F04E
:101DC0001F02012191400842CDD042E000214FF096
:101DD000807090FAA0F0B0FA80F0204A42F820100B
:101DE000FFF754F8054606E0FFF750F8401B64285B
:101DF00001D9032050E42020010591FAA1F1B1FAA4
:101E000081F108430121B1EB601F02D11248006843
:101E10000FE02020010591FAA1F1B1FA81F1084308
:101E20000221B1EB601F02D10B48006A01E00A48B1
:101E3000406A20210A0592FAA2F2B2FA82F2114314
:101E400001F01F02012191400842CDD101E00120A3
:101E500022E4002020E40000001002400000424282
:101E6000704770B504462546681EB0F1807F01D3E7
:101E700001200FE0681E4FF0E02148610F214FF074
:101E8000FF3000F08FF900204FF0E021886107203B
:101E90000861002070BD10B5FFF7E2FF10BD10B55E
:101EA0000121002000F020F90221002000F01CF99F
:101EB00010BD70B506460D46012D01D1402409E044
:101EC000032D01D1502405E00DB9002402E0022DBC
:101ED00000D11024701E2044C4B2204600F052F9F4
:101EE00070BD000070B50446207840F02000617895
:101EF0000843A17840EA010600F036F800220221EA
:101F00001848FEF7BDFF002201211648FEF7B8FF72
:101F10000F20FEF7F9FC002507E0032000F002F98E
:101F20000520FEF7F1FC681CC5B2032DF5DB02208D
:101F300000F0F8F80520FEF7E7FC3146002000F03D
:101F4000D3F80C263146002000F0CEF801263146A9
:101F5000002000F0C9F806263146002000F0C4F841
:101F600070BD00000010014000B585B000BF0D48F5
:101F7000806940F010000B4988610846806900F0D4
:101F80001000009000BF00BF0120029003200490C9
:101F900040F26330019001A90348FEF7D1FD05B07E
:101FA00000BD000000100240001001402DE9FC417E
:101FB00080464046FEF75AFA06466A4600F0B0FEF2
:101FC00004460D4600214046FEF764FA02D22D2059
:101FD00000F04CF8DDE90001FEF72FFA064600F0AC
:101FE00017F82E2000F042F80022084B2046294620
:101FF000FEF798F904460D4620462946FEF71DFADD
:10200000064600F005F8BDE8FC81000000005940DC
:1020100070B588B00446254600263CB9302000F053
:1020200025F8302000F022F808B070BD0BE00A203F
:10203000B5FBF0F100FB115030300DF806000A201E
:10204000B5FBF0F5761C002DF1D10A2C02D2302020
:1020500000F00CF803E01DF8060000F007F830006F
:10206000A6F10106F7D100BFDEE7000010B5044677
:10207000072C06D0082C16D00A2C0FD00C2C17D108
:1020800004E001210846FFF714FF1CE001210020B5
:1020900000F02AF80220FEF737FC14E002210120AC
:1020A000FFF707FF0FE01021002000F01DF80AE005
:1020B0007F2C03DDA4F1C00004490C5C2146012003
:1020C00000F012F800BF00BF10BD00001C36000871
:1020D00070B505462C4603E02078FFF7C7FF641C67
:1020E00020780028F8D170BD70B504460D462CB993
:1020F000002201210A48FEF7C3FE06E0012C04D1AC
:10210000012211460648FEF7BBFE0120FEF7FCFB4C
:10211000281100F007F805F00F0000F003F870BD7B
:102120000010014010B5044604F0010220211448BB
:10213000FEF7A6FEC4F3400240211148FEF7A0FEC0
:10214000C4F380024FF480710D48FEF799FEC4F38A
:10215000C0024FF400710A48FEF792FE0120FEF71C
:10216000D3FB012202210648FEF78AFE0120FEF77A
:10217000CBFB002202210248FEF782FE10BD0000C8
:102180000010014010B5044644F080010020FFF724
:10219000ABFF10BD02480068C0F30220704700008A
:1021A0000CED00E010B5002807DA0A07140E054A06
:1021B00000F00F031B1FD45403E00A07130E024A5A
:1021C000135410BD18ED00E000E400E010B5FEF778
:1021D00063FEFFF760FE10BD00B591B001200790CF
:1021E000000408900020099002200E90C1030F9176
:1021F0004FF4E011109107A8FFF77AF9052002903B
:1022000002200390002004904FF48060059000208D
:102210000690022102A8FEF7E1FE00BF0748806990
:1022200040F00100054988610846806900F001001E
:10223000019000BF00BF11B000BD000000100240BF
:102240001148006840F001000F49086008464068E6
:102250000E4908400C494860084600680C4908408F
:10226000094908600846006820F480200860084694
:10227000406820F4FE0048604FF41F008860C803E7
:102280000449086070470000001002400000FFF899
:10229000FFFFF6FE08ED00E002E008C8121F08C1CB
:1022A000002AFAD170477047002001E001C1121FD7
:1022B000002AFBD17047000010B50446002C4DD019
:1022C000444800684449884207D1444800F0D2F8A5
:1022D0004249087900F098F87BE03E4800684049A0
:1022E000884207D13F4800F0C5F83E49087900F020
:1022F0008BF86EE0374800683B49884207D13B487D
:1023000000F0B8F83949087900F07EF861E031480A
:1023100000683749884207D1364800F0ABF83549A4
:10232000087900F071F854E02A4800683249884280
:1023300007D1324800F09EF83049087900F064F87F
:1023400047E0244800682E49884242D12D4800F0D9
:1023500091F82C49087900F057F83AE01D480068D8
:102360001D49884204D11D49087900F04DF830E03C
:10237000184800681A49884204D11A49087900F0BF
:1023800043F826E0134800681749884204D11749EA
:10239000087900F039F81CE00E48006814498842BA
:1023A00004D11449087900F02FF812E009480068B8
:1023B0001149884204D11149087900F025F808E054
:1023C000044800680E49884203D10E49087900F09C
:1023D0001BF810BD10000020843800085C000020AD
:1023E000B438000864000020E43800086C000020C5
:1023F0001439000874000020443900087C000020D3
:10240000743900088400002010B504460021012022
:10241000FFF74FFD0E4909684869FFF759FE022191
:102420000846FFF746FD0BA0FFF752FE0CA0FFF792
:102430004FFE02210C20FFF73CFD1CB909A0FFF75D
:1024400047FE04E0012C02D108A0FFF741FE10BDB9
:1024500010000020D1EEF1F2EEFFEDE8E53A0000C9
:1024600020202000C2EAEB2E00000000CEF2EAEBB2
:102470002E00000010B504462079012807D1002065
:102480002071E18801222068FEF7FAFC08E020793B
:1024900030B901202071E18800222068FEF7F0FCAD
:1024A00010BD000010B5094800F01CF8084800F005
:1024B00019F8084800F016F8074800F013F8074824
:1024C00000F010F8064800F00DF810BD5C00002088
:1024D000640000206C000020740000207C000020BC
:1024E0008400002010B5044601202071E1880022FC
:1024F0002068FEF7C5FC10BD00B585B000BF1648CA
:10250000806940F00400144988610846806900F041
:102510000400009000BF00BF10480290022003900A
:10252000032004904FF4C750019001A90C48FEF716
:1025300007FB012205211720FEF7FEFC01220521E1
:102540002820FEF7F9FC1720FEF7E8FC2820FEF70C
:10255000E5FC05B000BD00000010024000002110A5
:102560000008014000B585B000BF2048806940F0F8
:1025700004001E4988610846806900F0040000904C
:1025800000BF00BF00BF0846806940F008008861B6
:102590000846806900F00800009000BF00BF0120DD
:1025A0000290032004900120039040F20C4001901F
:1025B00001A90F48FEF7C4FA0120029003200490FD
:1025C000012003903820019001A90A48FEF7B8FACB
:1025D000002240F20C410648FEF752FC002238214E
:1025E0000448FEF74DFC05B000BD0000001002409D
:1025F00000080140000C014010B5FFF77DFF10BD41
:1026000010B51648164908600420C88001200871DA
:102610001248144908600820C880012008710F483A
:10262000114908600015C880012008710F48104941
:1026300008600820C880012008710C480D49086016
:102640001020C8800120087108480B49086020202C
:10265000C88001200871FFF785FF10BD0008014008
:102660005C000020640000206C000020000C014091
:10267000740000207C0000208400002010B5044677
:10268000012C7CD1FC480068FC49884213D1FC48ED
:102690004088401C00B2FA494880B1F904108842D1
:1026A00003DDF7480088F6494880F549498888B233
:1026B00000F05AFA41E2F0480068F249884213D12A
:1026C000F1484088401C00B2EF494880B1F904103D
:1026D000884203DDEC480088EB494880EA49498894
:1026E00088B200F041FA28E2E3480068E7498842EE
:1026F00013D1E7484088401C00B2E5494880B1F951
:102700000410884203DDE2480088E1494880E0493E
:10271000498888B200F028FA0FE2D7480068DD49FE
:10272000884213D1DC484088401C00B2DA49488016
:10273000B1F90410884203DDD7480088D6494880A3
:10274000D549498888B200F00FFAF6E1CA48006816
:10275000D249884214D1D2484088401C00B2D049A6
:102760004880B1F90410884203DDCD480088CC4987
:102770004880CB49498888B200F0F6F9DDE166E08F
:10278000BD480068C749884213D1C7484088401CEB
:1027900000B2C5494880B1F90410884203DDC2483F
:1027A0000088C1494880C049498888B200F0DCF9F6
:1027B000C3E1B1480068BD49884213D1BC48408894
:1027C000401C00B2BA494880B1F90410884203DDC8
:1027D000B7480088B6494880B549498888B200F0B2
:1027E000C3F9AAE1A4480068B249884216D1B249A7
:1027F000B2480068FDF7C8FCB0490860B0480168FD
:10280000AE480068FDF750FE03D2AE480068AB4901
:102810000860AA48006800F0C9F98EE1964800688F
:10282000A949884291D1A9484088401C00B2A749D3
:102830004880B1F90410884203DDA4480088A34908
:102840004880A249498888B200F08EF975E1022CCF
:102850007CD1894800688949884213D188484088DA
:10286000401E00B286494880B1F90010884203DA60
:1028700083488088824948808149498888B200F02D
:1028800073F95AE17C4800687E49884213D17E483A
:102890004088401E00B27C494880B1F9001088424F
:1028A00003DA79488088784948807749498888B22E
:1028B00000F05AF941E1704800687449884213D128
:1028C00073484088401E00B271494880B1F9001039
:1028D000884203DA6E4880886D4948806C4949888F
:1028E00088B200F041F928E16348006869498842EC
:1028F00013D169484088401E00B267494880B1F949
:102900000410884203DA6448808863494880624939
:10291000498888B200F028F90FE1574800685F49FC
:10292000884214D15E484088401E00B25C4948800D
:10293000B1F90010884203DA594880885849488024
:102940005749498888B200F00FF9F6E066E04A4836
:1029500000685449884213D153484088401E00B251
:1029600051494880B1F90010884203DA4E48808806
:102970004D4948804C49498888B200F0F5F8DCE0C0
:102980003D4800684949884213D149484088401E63
:1029900000B247494880B1F90010884203DA444840
:1029A0008088434948804249498888B200F0DCF871
:1029B000C3E0314800683F49884216D13E493F484C
:1029C0000068FDF733FC3D4908603E4801683B481C
:1029D0000068FDF75FFD03D2394800683749086099
:1029E0003648006800F0E2F8A7E02348006836495E
:1029F000884212D135484088401E00B23349488091
:102A0000B1F90010884203DA304880882F494880A5
:102A10002E49498888B200F0A7F88EE0FCB9164824
:102A200000681649884205D11549498888B200F0E6
:102A30009BF882E0104800681249884205D112498B
:102A4000498888B200F090F877E00B4800680F4999
:102A5000884205D10E49498888B200F085F86CE0BB
:102A6000054800680B49884232D10B49498888B231
:102A700000F07AF861E0000010000020BC36000889
:102A80002C000020EC360008320000201C37000823
:102A9000380000204C3700083E0000207C3700083A
:102AA00044000020AC3700084A000020DC37000852
:102AB000500000200C3800080AD7233C20000020DA
:102AC00024000020280000203C3800085600002088
:102AD0001A4800681A49884205D11A49498888B2BB
:102AE00000F042F829E0154800681749884205D1EE
:102AF0001649498888B200F037F81EE00F48006890
:102B00001349884205D11349498888B200F02CF84E
:102B100013E00A4800681049884204D10F48006851
:102B200000F044F809E0054800680D49884204D1E6
:102B30000C49498888B200F017F810BD1000002039
:102B40007C37000844000020AC3700084A00002011
:102B5000DC370008500000200C380008200000205E
:102B60003C3800085600002010B504460021012022
:102B7000FFF79FF9094909684869FFF7A9FA012198
:102B80000220FFF796F906A0FFF7A2FA2020FFF730
:102B90006DFA2046FFF73CFA10BD0000100000203F
:102BA000CFE0F0E0ECE5F2F03A00000010B50446AA
:102BB00000210120FFF77DF9094909684869FFF7FD
:102BC00087FA01210220FFF774F906A0FFF780FAC7
:102BD0002020FFF74BFA2046FFF7E8F910BD000070
:102BE00010000020CFE0F0E0ECE5F2F03A00000049
:102BF000082003494870042088700020087070473E
:102C00000C00002070B50546012407E0E1B2012068
:102C1000FFF74FF92020FFF729FA641C032CF5DD9C
:102C2000681CC1B20120FFF744F93E20FFF71EFAED
:102C300070BD000070B5FFF732F923480068806866
:102C40002249884208D100210120FFF732F92048AB
:102C50000068FFF73DFA0AE01B480068866800211B
:102C60000120FFF726F97069FFF732FA00BF164816
:102C700005680068407C022803DC13480068447C37
:102C800007E011480068407C032190FBF1F201FB52
:102C9000120401E06D68641E002CFBDC00240FE0D0
:102CA000601CC1B20220FFF704F96869FFF710FA4F
:102CB00006492868884201D02D6800E002E0641CC3
:102CC000032CEDDB00BF70BD100000205C36000857
:102CD0000800002010B5FFF78BFF0448FFF702F94A
:102CE000FFF7DDF802480349086010BD0C00002022
:102CF0007436000810000020FEF7D6F8FFF76CFAD3
:102D0000FFF7E8FFFFF796FF0020FFF77BFFFFF7D5
:102D100073FC00F04BF9FFF773FC00BFFEE7000007
:102D2000002814BF4FF0010C4FF0000C4CEA0103D7
:102D3000DFF87CC09C45BCBFC2E900017047F0B41D
:102D4000C1F30A53A3F2FF344FF0000C01F000432B
:102D5000142C15DA002CBEBFC2E900C3F0BC7047CA
:102D6000144D25FA04F401EA040656EA000519D0C8
:102D700021EA0403C2E900C3F0BC6246FDF7D4BCFB
:102D8000332C0FDC143C4FF0FF3525FA04F42042BD
:102D900008D020EA0403C2E90031F0BC1A460B4611
:102DA000FDF7C2BCC2E90001F0BC1946604670479D
:102DB0000000F07FFFFF0F0008B523480068007C8B
:102DC00078BB21480068407C032190FBF1F0009023
:102DD0001D48006800681D49884200D108BD1A4896
:102DE000006800681849086008460068407C0321B4
:102DF00090FBF1F00099884208D013480068407CAD
:102E0000032190FBF1F00090FFF714FF0E490968D1
:102E1000497C0323009A03FB1211C8B2FFF7F2FEAC
:102E200010E0FFE708480068007C022802D1FFF7A5
:102E300025FC07E004480068007C012802D102203C
:102E4000FFF73AFA00BFC9E7100000205C3600081F
:102E500008B517480068007C022801D100F0F8F995
:102E600013480068007C012801D1FFF71BFB1048C4
:102E7000006880680F49884200D108BD0C4800688E
:102E800080680B490860FFF7D5FE09480068407C60
:102E9000032190FBF1F0009005490968497C032368
:102EA000009A03FB1211C8B2FFF7ACFE00BFE4E7C3
:102EB000100000205C36000810B517480068C06894
:102EC0001649884200D110BD13480068C0681249F5
:102ED000086008460068007C38B9FFF7ABFE0E4971
:102EE0000968487CFFF78EFE14E00B480068007C00
:102EF000022805D1FEF7D3FF0020FFF7BFFB09E052
:102F000005480068007C012804D1FEF7C8FF0020B6
:102F1000FFF7D2F900BFD6E7100000205C360008AA
:102F200010B520480068007C50BB1E480068407CFB
:102F3000032190FBF1F41B48006840681A4988425D
:102F400000D110BD1748006840681649086008465F
:102F50000068407C032190FBF1F0A04206D01148AC
:102F60000068407C90FBF1F4FFF764FE0D490968AE
:102F7000497C032202FB1411C8B2FFF743FE0FE0A5
:102F800008480068007C022803D10120FFF776FB87
:102F900006E004480068007C012801D1FFF78CF9A5
:102FA00000BFCEE7100000205C36000810B59A483C
:102FB0009A49086008460068006800B2984908808D
:102FC00096480068001D954908600846006800683A
:102FD00000B29349488091480068001D8F490860FD
:102FE00008460068006800B28D4988808B480068F8
:102FF000001D8A49086008460068006800B28949D7
:10300000088086480068001D8449086008460068FA
:10301000006800B28349488080480068001D7F49ED
:10302000086008460068006800B27E4988807B48D6
:103030000068001D7949086008460068006800B211
:103040007949088075480068001D74490860084681
:103050000068006800B27449488070480068001D2C
:103060006E49086008460068006800B26E498880B2
:103070006A480068001D69490860084600680068E1
:1030800000B26A49088065480068001D634908600D
:1030900008460068006800B2644948805F480068DC
:1030A000001D5E49086008460068006800B25F497C
:1030B00088805A480068001D584908600846006822
:1030C000006800B25A49088054480068001D5349FE
:1030D000086008460068006800B2554948804F48BB
:1030E0000068001D4D49086008460068006800B28D
:1030F0004F49888049480068001D484908600846D3
:103100000068006800B24B49088044480068001D10
:103110004249086008460068006800B24549488096
:103120003E480068001D3D49086008460068006888
:1031300000B24049888039480068001D374908605E
:1031400008460068006800B23B49088033480068C0
:10315000001D3249086008460068006800B2364920
:1031600048802E480068001D2C4908600846006809
:10317000006800B23049888028480068001D27494F
:10318000086008460068006800B22C49088023489F
:103190000068001D2149086008460068006800B208
:1031A000264948801D480068001D1C4908600846E3
:1031B0000068006800B22149888018480068001D36
:1031C0001649086009680868FDF71EF904461C499D
:1031D000FDF768F81B49086010480068001D0F499A
:1031E000086009680868FDF70FF904461449FDF7FF
:1031F00059F81549086009480068001D074908602A
:1032000009680868FDF700F904460D49FDF74AF81A
:103210000E49086010BD0000009001081800002051
:103220002C00002032000020380000203E0000204A
:10323000440000204A0000205000002056000020DA
:103240000000C842280000202000002024000020A8
:1032500070B5FDF723FC0020DC490860DC4888607D
:103260000120C860DB49D948FDF75CFB00B170BDA7
:10327000D748D9490860D948B0F900402246002310
:10328000084601680220FDF7AFFBD3480068001D27
:10329000D1490860D148B0F90240224600230846CF
:1032A00001680220FDF7A0FBCB480068001DCA4959
:1032B0000860CA48B0F90440224600230846016865
:1032C0000220FDF791FBC4480068001DC249086058
:1032D000C348B0F900402246002308460168022096
:1032E000FDF782FBBC480068001DBB490860BC4874
:1032F000B0F9024022460023084601680220FDF78B
:1033000073FBB5480068001DB3490860B448B0F9C4
:10331000044022460023084601680220FDF764FBB2
:10332000AD480068001DAC490860AE48B0F90040E7
:1033300022460023084601680220FDF755FBA648F7
:103340000068001DA4490860A648B0F90240224662
:103350000023084601680220FDF746FB9E480068EE
:10336000001D9D4908609F48B0F904402246002393
:10337000084601680220FDF737FB97480068001DEA
:10338000954908609848B0F9004022460023084655
:1033900001680220FDF728FB8F480068001D8E4958
:1033A00008609148B0F902402246002308460168AF
:1033B0000220FDF719FB88480068001D8649086057
:1033C0008948B0F9044022460023084601680220DB
:1033D000FDF70AFB80480068001D7F4908608348AC
:1033E000B0F9004022460023084601680220FDF79C
:1033F000FBFA79480068001D774908607B48B0F9FE
:10340000024022460023084601680220FDF7ECFA3C
:1034100071480068001D704908607448B0F90440A4
:1034200022460023084601680220FDF7DDFA6A48BB
:103430000068001D684908606D48B0F900402246E8
:103440000023084601680220FDF7CEFA62480068B2
:10345000001D614908606648B0F902402246002319
:10346000084601680220FDF7BFFA5B480068001DAE
:10347000594908605E48B0F90440224600230846D6
:1034800001680220FDF7B0FA53480068001D524958
:1034900008605848B0F900402246002308460168F9
:1034A0000220FDF7A1FA4C480068001D4A49086057
:1034B0005048B0F902402246002308460168022025
:1034C000FDF792FA44480068001D434908604948E6
:1034D000B0F9044022460023084601680220FDF7A7
:1034E00083FA3D480068001D3B4908604248B0F936
:1034F000004022460023084601680220FDF774FAC6
:1035000035480068001D344908603B48B0F9024066
:1035100022460023084601680220FDF765FA2E487E
:103520000068001D2C4908603348B0F90440224669
:103530000023084601680220FDF756FA2648006875
:10354000001D254908602D492D480068FCF774FED0
:103550000646FCF75EFF0023044622461E4801682B
:103560000220FDF741FA1C480068001D1A49086056
:10357000224924480068FCF75FFE0646FCF749FF35
:10358000002304462246144801680220FDF72CFA65
:1035900011480068001D1049086018491A48006861
:1035A000FCF74AFE0646FCF734FF00230446224699
:1035B000094801680220FDF717FA07480068001D56
:1035C00005490860FDF706FA00BF50E6B00000208C
:1035D000009001081C000020180000202C00002092
:1035E00032000020380000203E000020440000206F
:1035F0004A00002050000020560000200000C84271
:1036000028000020200000202400002000000000EE
:1036100001020304010203040607080941A042A1B4
:10362000E045A3A4A5A64BA74D484FA8504354A9D5
:10363000AA58E1ABACE2ADAEADAFB0B161B2B3B4DC
:10364000E365B6B7B8B9BABBBCBD6FBE7063BF792E
:10365000E478E5C0C1E6C2C3C4C5C6C70000000027
:10366000000000000000000000000000000000005A
:10367000803A00088C3600085C3600085C3600088A
:103680005C36000800000000603A00085C36000864
:10369000743600085C360008A436000800010000FB
:1036A000F8390008D43600085C3600088C3600086B
:1036B000BC36000800000000733A00085C360008C1
:1036C0005C360008A43600085C36000802000000E2
:1036D000733A000804370008A43600088C36000846
:1036E000EC36000800010000C53900085C3600080F
:1036F0005C360008D43600085C3600080200000082
:10370000C539000834370008D43600088C36000864
:103710001C370008000200009B3900085C360008D6
:103720005C360008043700085C3600080200000020
:103730009B39000864370008043700088C360008FD
:103740004C37000800030000DE3900085C36000832
:103750005C360008343700085C36000802000000C0
:10376000DE39000894370008343700088C3600082A
:103770007C370008000400008C3900085C36000823
:103780005C360008643700085C3600080200000060
:10379000C5390008C4370008643700088C360008B3
:1037A000AC37000800050000B53900085C36000899
:1037B0005C360008943700085C3600080200000000
:1037C000B5390008F4370008943700088C36000833
:1037D000DC370008000600001C3A00085C360008D0
:1037E0005C360008C43700085C36000802000000A0
:1037F0001C3A000824380008C43700088C3600083A
:103800000C380008000700000F3A00085C3600087A
:103810005C360008F43700085C360008020000003F
:103820002A3A000854380008F43700088C3600089B
:103830003C38000800080000373A00085C360008F1
:103840005C360008243800085C36000802000000DE
:10385000373A00085C360008243800088C36000827
:103860006C38000800090000A93900089C380008DD
:103870005C36000854380008843800080000000056
:10388000473A00085C3600085C3600086C380008CF
:103890005C36000801000000473A0008CC380008F8
:1038A0006C38000854380008B438000800010000E3
:1038B000023A00085C3600085C3600089C380008B4
:1038C0005C36000801000000023A0008FC380008DD
:1038D0009C38000854380008E43800080002000052
:1038E0005C3A00085C3600085C360008CC380008FA
:1038F0005C360008010000005C3A00082C39000822
:10390000CC380008543800081439000800030000BF
:10391000533A00085C3600085C360008FC380008A2
:103920005C36000801000000533A00085C390008CA
:10393000FC3800085438000844390008000400002E
:10394000EA3900085C3600085C3600082C390008AB
:103950005C36000801000000EA3900085C36000807
:103960002C3900085438000874390008000500009C
:10397000D23900085C3600085C3600085C39000863
:103980005C36000801000000D2390008D2EEEF2DAD
:10399000E2EE20F0EEE7E6E8E3E000C2F0E5ECFF5F
:1039A00020F0EEE7E6E8E3E000C4E8E0E3EDEEF166
:1039B000F2E8EAE000C7E0EFEEEB2DEDE8E520F8F5
:1039C000EDFDEAE000D2E5EC2DF0E020EAEEF2EBCE
:1039D000E000CDE0F1EEF120EAEEF2EBE000D0E025
:1039E000E1EEF2E020F2FDEDE000CDE0F1EEF120BD
:1039F000E1EEE9EBE5F0E000CDE0F1F2F0EEE9EA2E
:103A0000E800D8EDE5EA20E3EEF0E5EBEAE800C2F5
:103A1000F0E5ECFF20F7E8F2F1EAE800CFE5F0E8A6
:103A2000EEE420F7E8F1F2EAE800C2F0E5ECFF206E
:103A3000F7E8F1F2EAE800DFF0EAEEF1F2FC20EF5D
:103A4000EBE0ECE5EDE800D8EDE5EA20EFEEE4E0B0
:103A5000F7E800CAEEEBEEF1EDE8EA00D2FDED008A
:103A6000D1F2E0F0F200C3EBE0E2EDEEE520ECE5B0
:103A7000EDFE00D0E5E6E8EC20E3EEF0E5EDE8FF52
:103A800000000000A43A0008000000208C000000A4
:103A900098220008303B00088C000020340400000D
:103AA000A822000800A24A0400000000663A0008AC
:103AB0000000000000000000000000000000000006
:103AC00000000000000000000000000000000000F6
:103AD00000000000000000000000000000000000E6
:103AE00000000000000000000000000000000000D6
:103AF00000000000000000000000000000000000C6
:103B000000000000000000000000000000000000B5
:103B100000000000000000000000000000000000A5
:103B20000000000000000000000000000000000095
:0400000508000131BD
:00000001FF
